{
  "_format": "hh-sol-artifact-1",
  "contractName": "AirvertiseNFT",
  "sourceName": "contracts/AirvertiseNFT.sol",
  "abi": [
    {
      "inputs": [
        {
          "internalType": "string",
          "name": "__campaignTitle",
          "type": "string"
        },
        {
          "internalType": "string",
          "name": "__symbol",
          "type": "string"
        },
        {
          "internalType": "string",
          "name": "_campaignName",
          "type": "string"
        },
        {
          "internalType": "uint256",
          "name": "_value",
          "type": "uint256"
        },
        {
          "internalType": "string",
          "name": "_advertisementUri",
          "type": "string"
        },
        {
          "internalType": "address",
          "name": "_airvertiseFactoryAddress",
          "type": "address"
        }
      ],
      "stateMutability": "nonpayable",
      "type": "constructor"
    },
    {
      "anonymous": false,
      "inputs": [
        {
          "indexed": true,
          "internalType": "address",
          "name": "owner",
          "type": "address"
        },
        {
          "indexed": true,
          "internalType": "address",
          "name": "approved",
          "type": "address"
        },
        {
          "indexed": true,
          "internalType": "uint256",
          "name": "tokenId",
          "type": "uint256"
        }
      ],
      "name": "Approval",
      "type": "event"
    },
    {
      "anonymous": false,
      "inputs": [
        {
          "indexed": true,
          "internalType": "address",
          "name": "owner",
          "type": "address"
        },
        {
          "indexed": true,
          "internalType": "address",
          "name": "operator",
          "type": "address"
        },
        {
          "indexed": false,
          "internalType": "bool",
          "name": "approved",
          "type": "bool"
        }
      ],
      "name": "ApprovalForAll",
      "type": "event"
    },
    {
      "anonymous": false,
      "inputs": [
        {
          "indexed": true,
          "internalType": "address",
          "name": "from",
          "type": "address"
        },
        {
          "indexed": true,
          "internalType": "address",
          "name": "to",
          "type": "address"
        },
        {
          "indexed": true,
          "internalType": "uint256",
          "name": "tokenId",
          "type": "uint256"
        }
      ],
      "name": "Transfer",
      "type": "event"
    },
    {
      "inputs": [
        {
          "internalType": "address",
          "name": "",
          "type": "address"
        }
      ],
      "name": "addressToTokenId",
      "outputs": [
        {
          "internalType": "uint256",
          "name": "",
          "type": "uint256"
        }
      ],
      "stateMutability": "view",
      "type": "function"
    },
    {
      "inputs": [],
      "name": "advertisementUri",
      "outputs": [
        {
          "internalType": "string",
          "name": "",
          "type": "string"
        }
      ],
      "stateMutability": "view",
      "type": "function"
    },
    {
      "inputs": [],
      "name": "airdropValue",
      "outputs": [
        {
          "internalType": "uint256",
          "name": "",
          "type": "uint256"
        }
      ],
      "stateMutability": "view",
      "type": "function"
    },
    {
      "inputs": [],
      "name": "airvertiseFactoryAddress",
      "outputs": [
        {
          "internalType": "address",
          "name": "",
          "type": "address"
        }
      ],
      "stateMutability": "view",
      "type": "function"
    },
    {
      "inputs": [
        {
          "internalType": "address",
          "name": "to",
          "type": "address"
        },
        {
          "internalType": "uint256",
          "name": "tokenId",
          "type": "uint256"
        }
      ],
      "name": "approve",
      "outputs": [],
      "stateMutability": "nonpayable",
      "type": "function"
    },
    {
      "inputs": [
        {
          "internalType": "address",
          "name": "owner",
          "type": "address"
        }
      ],
      "name": "balanceOf",
      "outputs": [
        {
          "internalType": "uint256",
          "name": "",
          "type": "uint256"
        }
      ],
      "stateMutability": "view",
      "type": "function"
    },
    {
      "inputs": [
        {
          "internalType": "address[]",
          "name": "_to",
          "type": "address[]"
        }
      ],
      "name": "bulkAirdropERC721",
      "outputs": [],
      "stateMutability": "payable",
      "type": "function"
    },
    {
      "inputs": [],
      "name": "campaignName",
      "outputs": [
        {
          "internalType": "string",
          "name": "",
          "type": "string"
        }
      ],
      "stateMutability": "view",
      "type": "function"
    },
    {
      "inputs": [
        {
          "internalType": "uint256",
          "name": "_tokenId",
          "type": "uint256"
        },
        {
          "internalType": "address",
          "name": "_claimer",
          "type": "address"
        }
      ],
      "name": "claimAirdrop",
      "outputs": [],
      "stateMutability": "nonpayable",
      "type": "function"
    },
    {
      "inputs": [
        {
          "internalType": "uint256",
          "name": "tokenId",
          "type": "uint256"
        }
      ],
      "name": "getApproved",
      "outputs": [
        {
          "internalType": "address",
          "name": "",
          "type": "address"
        }
      ],
      "stateMutability": "view",
      "type": "function"
    },
    {
      "inputs": [
        {
          "internalType": "address",
          "name": "_address",
          "type": "address"
        }
      ],
      "name": "getTokenIdByAddress",
      "outputs": [
        {
          "internalType": "uint256",
          "name": "tokenId",
          "type": "uint256"
        }
      ],
      "stateMutability": "view",
      "type": "function"
    },
    {
      "inputs": [
        {
          "internalType": "address",
          "name": "owner",
          "type": "address"
        },
        {
          "internalType": "address",
          "name": "operator",
          "type": "address"
        }
      ],
      "name": "isApprovedForAll",
      "outputs": [
        {
          "internalType": "bool",
          "name": "",
          "type": "bool"
        }
      ],
      "stateMutability": "view",
      "type": "function"
    },
    {
      "inputs": [],
      "name": "name",
      "outputs": [
        {
          "internalType": "string",
          "name": "",
          "type": "string"
        }
      ],
      "stateMutability": "view",
      "type": "function"
    },
    {
      "inputs": [
        {
          "internalType": "uint256",
          "name": "tokenId",
          "type": "uint256"
        }
      ],
      "name": "ownerOf",
      "outputs": [
        {
          "internalType": "address",
          "name": "",
          "type": "address"
        }
      ],
      "stateMutability": "view",
      "type": "function"
    },
    {
      "inputs": [
        {
          "internalType": "address",
          "name": "from",
          "type": "address"
        },
        {
          "internalType": "address",
          "name": "to",
          "type": "address"
        },
        {
          "internalType": "uint256",
          "name": "tokenId",
          "type": "uint256"
        }
      ],
      "name": "safeTransferFrom",
      "outputs": [],
      "stateMutability": "nonpayable",
      "type": "function"
    },
    {
      "inputs": [
        {
          "internalType": "address",
          "name": "from",
          "type": "address"
        },
        {
          "internalType": "address",
          "name": "to",
          "type": "address"
        },
        {
          "internalType": "uint256",
          "name": "tokenId",
          "type": "uint256"
        },
        {
          "internalType": "bytes",
          "name": "data",
          "type": "bytes"
        }
      ],
      "name": "safeTransferFrom",
      "outputs": [],
      "stateMutability": "nonpayable",
      "type": "function"
    },
    {
      "inputs": [
        {
          "internalType": "address",
          "name": "operator",
          "type": "address"
        },
        {
          "internalType": "bool",
          "name": "approved",
          "type": "bool"
        }
      ],
      "name": "setApprovalForAll",
      "outputs": [],
      "stateMutability": "nonpayable",
      "type": "function"
    },
    {
      "inputs": [
        {
          "internalType": "bytes4",
          "name": "interfaceId",
          "type": "bytes4"
        }
      ],
      "name": "supportsInterface",
      "outputs": [
        {
          "internalType": "bool",
          "name": "",
          "type": "bool"
        }
      ],
      "stateMutability": "view",
      "type": "function"
    },
    {
      "inputs": [],
      "name": "symbol",
      "outputs": [
        {
          "internalType": "string",
          "name": "",
          "type": "string"
        }
      ],
      "stateMutability": "view",
      "type": "function"
    },
    {
      "inputs": [],
      "name": "tokenIdCounter",
      "outputs": [
        {
          "internalType": "uint256",
          "name": "",
          "type": "uint256"
        }
      ],
      "stateMutability": "view",
      "type": "function"
    },
    {
      "inputs": [
        {
          "internalType": "uint256",
          "name": "tokenId",
          "type": "uint256"
        }
      ],
      "name": "tokenURI",
      "outputs": [
        {
          "internalType": "string",
          "name": "",
          "type": "string"
        }
      ],
      "stateMutability": "view",
      "type": "function"
    },
    {
      "inputs": [
        {
          "internalType": "address",
          "name": "from",
          "type": "address"
        },
        {
          "internalType": "address",
          "name": "to",
          "type": "address"
        },
        {
          "internalType": "uint256",
          "name": "tokenId",
          "type": "uint256"
        }
      ],
      "name": "transferFrom",
      "outputs": [],
      "stateMutability": "nonpayable",
      "type": "function"
    }
  ],
  "bytecode": "0x60806040523480156200001157600080fd5b5060405162002549380380620025498339810160408190526200003491620002f9565b600160008190558651879187916200005291906020850190620000c8565b50805162000068906002906020840190620000c8565b50508451620000809150600b906020870190620000c8565b50600983905581516200009b90600a906020850190620000c8565b50600d80546001600160a01b0319166001600160a01b039290921691909117905550620004479350505050565b828054620000d69062000416565b90600052602060002090601f016020900481019282620000fa576000855562000145565b82601f106200011557805160ff191683800117855562000145565b8280016001018555821562000145579182015b828111156200014557825182559160200191906001019062000128565b506200015392915062000157565b5090565b5b8082111562000153576000815560010162000158565b634e487b7160e01b600052604160045260246000fd5b601f19601f83011681018181106001600160401b0382111715620001ac57620001ac6200016e565b6040525050565b6000620001bf60405190565b9050620001cd828262000184565b919050565b60006001600160401b03821115620001ee57620001ee6200016e565b601f19601f83011660200192915050565b60005b838110156200021c57818101518382015260200162000202565b838111156200022c576000848401525b50505050565b6000620002496200024384620001d2565b620001b3565b905082815260208101848484011115620002665762000266600080fd5b62000273848285620001ff565b509392505050565b600082601f830112620002915762000291600080fd5b8151620002a384826020860162000232565b949350505050565b805b8114620002b957600080fd5b50565b8051620002c981620002ab565b92915050565b60006001600160a01b038216620002c9565b620002ad81620002cf565b8051620002c981620002e1565b60008060008060008060c08789031215620003175762000317600080fd5b86516001600160401b03811115620003325762000332600080fd5b6200034089828a016200027b565b96505060208701516001600160401b03811115620003615762000361600080fd5b6200036f89828a016200027b565b95505060408701516001600160401b03811115620003905762000390600080fd5b6200039e89828a016200027b565b9450506060620003b189828a01620002bc565b93505060808701516001600160401b03811115620003d257620003d2600080fd5b620003e089828a016200027b565b92505060a0620003f389828a01620002ec565b9150509295509295509295565b634e487b7160e01b600052602260045260246000fd5b6002810460018216806200042b57607f821691505b6020821081141562000441576200044162000400565b50919050565b6120f280620004576000396000f3fe6080604052600436106101355760003560e01c806381701f37116100ab578063a22cb4651161006f578063a22cb46514610359578063a7c7d2a014610379578063b88d4fde1461038f578063c87b56dd146103af578063e2d732df146103cf578063e985e9c5146103ef57600080fd5b806381701f37146102c35780638cbab7e4146102d857806393575f971461030e57806395d89b411461032e57806398bdf6f51461034357600080fd5b806323b872dd116100fd57806323b872dd146101f657806342842e0e146102165780635d8b4d68146102365780636352211e146102495780636511bf2e1461026957806370a08231146102a357600080fd5b806301ffc9a71461013a57806306fdde03146101705780630724fda914610192578063081812fc146101a7578063095ea7b3146101d4575b600080fd5b34801561014657600080fd5b5061015a6101553660046114e3565b61040f565b604051610167919061150e565b60405180910390f35b34801561017c57600080fd5b50610185610461565b604051610167919061157a565b34801561019e57600080fd5b506101856104f3565b3480156101b357600080fd5b506101c76101c236600461159c565b610581565b60405161016791906115d7565b3480156101e057600080fd5b506101f46101ef3660046115f9565b6105a8565b005b34801561020257600080fd5b506101f4610211366004611636565b610637565b34801561022257600080fd5b506101f4610231366004611636565b610668565b6101f46102443660046116d8565b610683565b34801561025557600080fd5b506101c761026436600461159c565b610888565b34801561027557600080fd5b50610296610284366004611720565b600c6020526000908152604090205481565b6040516101679190611747565b3480156102af57600080fd5b506102966102be366004611720565b6108bd565b3480156102cf57600080fd5b50610185610901565b3480156102e457600080fd5b506102966102f3366004611720565b6001600160a01b03166000908152600c602052604090205490565b34801561031a57600080fd5b506101f4610329366004611755565b61090e565b34801561033a57600080fd5b50610185610a2a565b34801561034f57600080fd5b5061029660085481565b34801561036557600080fd5b506101f461037436600461179b565b610a39565b34801561038557600080fd5b5061029660095481565b34801561039b57600080fd5b506101f46103aa3660046118c9565b610a48565b3480156103bb57600080fd5b506101856103ca36600461159c565b610a80565b3480156103db57600080fd5b50600d546101c7906001600160a01b031681565b3480156103fb57600080fd5b5061015a61040a366004611948565b610b91565b60006001600160e01b031982166380ac58cd60e01b148061044057506001600160e01b03198216635b5e139f60e01b145b8061045b57506301ffc9a760e01b6001600160e01b03198316145b92915050565b60606001805461047090611980565b80601f016020809104026020016040519081016040528092919081815260200182805461049c90611980565b80156104e95780601f106104be576101008083540402835291602001916104e9565b820191906000526020600020905b8154815290600101906020018083116104cc57829003601f168201915b5050505050905090565b600b805461050090611980565b80601f016020809104026020016040519081016040528092919081815260200182805461052c90611980565b80156105795780601f1061054e57610100808354040283529160200191610579565b820191906000526020600020905b81548152906001019060200180831161055c57829003601f168201915b505050505081565b600061058c82610bbf565b506000908152600560205260409020546001600160a01b031690565b60006105b382610888565b9050806001600160a01b0316836001600160a01b031614156105f05760405162461bcd60e51b81526004016105e7906119ee565b60405180910390fd5b336001600160a01b038216148061060c575061060c8133610b91565b6106285760405162461bcd60e51b81526004016105e790611a58565b6106328383610bf6565b505050565b6106413382610c64565b61065d5760405162461bcd60e51b81526004016105e790611ab3565b610632838383610cc2565b61063283838360405180602001604052806000815250610a48565b600260005414156106a65760405162461bcd60e51b81526004016105e790611afa565b6002600055600d546001600160a01b031633146106d55760405162461bcd60e51b81526004016105e790611b3e565b806106f25760405162461bcd60e51b81526004016105e790611b7a565b600954610700908290611ba0565b34101561071f5760405162461bcd60e51b81526004016105e790611be6565b60005b8181101561086d5761076783838381811061073f5761073f611bf6565b90506020020160208101906107549190611720565b826008546107629190611c0c565b610def565b610808816008546107789190611c0c565b600a805461078590611980565b80601f01602080910402602001604051908101604052809291908181526020018280546107b190611980565b80156107fe5780601f106107d3576101008083540402835291602001916107fe565b820191906000526020600020905b8154815290600101906020018083116107e157829003601f168201915b5050505050610e09565b806008546108169190611c0c565b600c600085858581811061082c5761082c611bf6565b90506020020160208101906108419190611720565b6001600160a01b031681526020810191909152604001600020558061086581611c24565b915050610722565b5060085461087c908290611c0c565b60085550506001600055565b6000818152600360205260408120546001600160a01b03168061045b5760405162461bcd60e51b81526004016105e790611c73565b60006001600160a01b0382166108e55760405162461bcd60e51b81526004016105e790611cc9565b506001600160a01b031660009081526004602052604090205490565b600a805461050090611980565b600260005414156109315760405162461bcd60e51b81526004016105e790611afa565b6002600055600d546001600160a01b031633146109605760405162461bcd60e51b81526004016105e790611b3e565b61096982610888565b6001600160a01b0316816001600160a01b0316146109995760405162461bcd60e51b81526004016105e790611cff565b6109a282610e5c565b6000816001600160a01b03166009546040516109bd90611d0f565b60006040518083038185875af1925050503d80600081146109fa576040519150601f19603f3d011682016040523d82523d6000602084013e6109ff565b606091505b5050905080610a205760405162461bcd60e51b81526004016105e790611d42565b5050600160005550565b60606002805461047090611980565b610a44338383610e9c565b5050565b610a523383610c64565b610a6e5760405162461bcd60e51b81526004016105e790611ab3565b610a7a84848484610f3f565b50505050565b6060610a8b82610bbf565b60008281526007602052604081208054610aa490611980565b80601f0160208091040260200160405190810160405280929190818152602001828054610ad090611980565b8015610b1d5780601f10610af257610100808354040283529160200191610b1d565b820191906000526020600020905b815481529060010190602001808311610b0057829003601f168201915b505050505090506000610b3b60408051602081019091526000815290565b9050805160001415610b4e575092915050565b815115610b80578082604051602001610b68929190611d74565b60405160208183030381529060405292505050919050565b610b8984610f72565b949350505050565b6001600160a01b03918216600090815260066020908152604080832093909416825291909152205460ff1690565b6000818152600360205260409020546001600160a01b0316610bf35760405162461bcd60e51b81526004016105e790611c73565b50565b600081815260056020526040902080546001600160a01b0319166001600160a01b0384169081179091558190610c2b82610888565b6001600160a01b03167f8c5be1e5ebec7d5bd14f71427d1e84f3dd0314c0f7b2291e5b200ac8c7c3b92560405160405180910390a45050565b600080610c7083610888565b9050806001600160a01b0316846001600160a01b03161480610c975750610c978185610b91565b80610b895750836001600160a01b0316610cb084610581565b6001600160a01b031614949350505050565b826001600160a01b0316610cd582610888565b6001600160a01b031614610cfb5760405162461bcd60e51b81526004016105e790611dce565b6001600160a01b038216610d215760405162461bcd60e51b81526004016105e790611e1f565b610d2c838383610fe6565b610d37600082610bf6565b6001600160a01b0383166000908152600460205260408120805460019290610d60908490611e2f565b90915550506001600160a01b0382166000908152600460205260408120805460019290610d8e908490611c0c565b909155505060008181526003602052604080822080546001600160a01b0319166001600160a01b0386811691821790925591518493918716917fddf252ad1be2c89b69c2b068fc378daa952ba7f163c4a11628f55a4df523b3ef91a4505050565b610a4482826040518060200160405280600081525061101f565b6000828152600360205260409020546001600160a01b0316610e3d5760405162461bcd60e51b81526004016105e790611e91565b60008281526007602090815260409091208251610632928401906113f2565b610e6581611052565b60008181526007602052604090208054610e7e90611980565b159050610bf3576000818152600760205260408120610bf391611476565b816001600160a01b0316836001600160a01b03161415610ece5760405162461bcd60e51b81526004016105e790611ed5565b6001600160a01b0383811660008181526006602090815260408083209487168084529490915290819020805460ff1916851515179055517f17307eab39ab6107e8899845ad3d59bd9653f200f220920489ca2b5937696c3190610f3290859061150e565b60405180910390a3505050565b610f4a848484610cc2565b610f56848484846110f9565b610a7a5760405162461bcd60e51b81526004016105e790611f34565b6060610f7d82610bbf565b6000610f9460408051602081019091526000815290565b90506000815111610fb45760405180602001604052806000815250610fdf565b80610fbe84611206565b604051602001610fcf929190611d74565b6040516020818303038152906040525b9392505050565b6001600160a01b038316158061100357506001600160a01b038216155b6106325760405162461bcd60e51b81526004016105e790611f78565b6110298383611304565b61103660008484846110f9565b6106325760405162461bcd60e51b81526004016105e790611f34565b600061105d82610888565b905061106b81600084610fe6565b611076600083610bf6565b6001600160a01b038116600090815260046020526040812080546001929061109f908490611e2f565b909155505060008281526003602052604080822080546001600160a01b0319169055518391906001600160a01b038416907fddf252ad1be2c89b69c2b068fc378daa952ba7f163c4a11628f55a4df523b3ef908390a45050565b60006001600160a01b0384163b156111fb57604051630a85bd0160e11b81526001600160a01b0385169063150b7a029061113d903390899088908890600401611f88565b602060405180830381600087803b15801561115757600080fd5b505af1925050508015611187575060408051601f3d908101601f1916820190925261118491810190611fd7565b60015b6111e1573d8080156111b5576040519150601f19603f3d011682016040523d82523d6000602084013e6111ba565b606091505b5080516111d95760405162461bcd60e51b81526004016105e790611f34565b805181602001fd5b6001600160e01b031916630a85bd0160e11b149050610b89565b506001949350505050565b60608161122a5750506040805180820190915260018152600360fc1b602082015290565b8160005b8115611254578061123e81611c24565b915061124d9050600a8361200e565b915061122e565b60008167ffffffffffffffff81111561126f5761126f6117ce565b6040519080825280601f01601f191660200182016040528015611299576020820181803683370190505b5090505b8415610b89576112ae600183611e2f565b91506112bb600a86612022565b6112c6906030611c0c565b60f81b8183815181106112db576112db611bf6565b60200101906001600160f81b031916908160001a9053506112fd600a8661200e565b945061129d565b6001600160a01b03821661132a5760405162461bcd60e51b81526004016105e790612068565b6000818152600360205260409020546001600160a01b03161561135f5760405162461bcd60e51b81526004016105e7906120ac565b61136b60008383610fe6565b6001600160a01b0382166000908152600460205260408120805460019290611394908490611c0c565b909155505060008181526003602052604080822080546001600160a01b0319166001600160a01b03861690811790915590518392907fddf252ad1be2c89b69c2b068fc378daa952ba7f163c4a11628f55a4df523b3ef908290a45050565b8280546113fe90611980565b90600052602060002090601f0160209004810192826114205760008555611466565b82601f1061143957805160ff1916838001178555611466565b82800160010185558215611466579182015b8281111561146657825182559160200191906001019061144b565b506114729291506114ac565b5090565b50805461148290611980565b6000825580601f10611492575050565b601f016020900490600052602060002090810190610bf391905b5b8082111561147257600081556001016114ad565b6001600160e01b031981165b8114610bf357600080fd5b803561045b816114c1565b6000602082840312156114f8576114f8600080fd5b6000610b8984846114d8565b8015155b82525050565b6020810161045b8284611504565b60005b8381101561153757818101518382015260200161151f565b83811115610a7a5750506000910152565b6000611552825190565b80845260208401935061156981856020860161151c565b601f01601f19169290920192915050565b60208082528101610fdf8184611548565b806114cd565b803561045b8161158b565b6000602082840312156115b1576115b1600080fd5b6000610b898484611591565b60006001600160a01b03821661045b565b611508816115bd565b6020810161045b82846115ce565b6114cd816115bd565b803561045b816115e5565b6000806040838503121561160f5761160f600080fd5b600061161b85856115ee565b925050602061162c85828601611591565b9150509250929050565b60008060006060848603121561164e5761164e600080fd5b600061165a86866115ee565b935050602061166b868287016115ee565b925050604061167c86828701611591565b9150509250925092565b60008083601f84011261169b5761169b600080fd5b50813567ffffffffffffffff8111156116b6576116b6600080fd5b6020830191508360208202830111156116d1576116d1600080fd5b9250929050565b600080602083850312156116ee576116ee600080fd5b823567ffffffffffffffff81111561170857611708600080fd5b61171485828601611686565b92509250509250929050565b60006020828403121561173557611735600080fd5b6000610b8984846115ee565b80611508565b6020810161045b8284611741565b6000806040838503121561176b5761176b600080fd5b60006117778585611591565b925050602061162c858286016115ee565b8015156114cd565b803561045b81611788565b600080604083850312156117b1576117b1600080fd5b60006117bd85856115ee565b925050602061162c85828601611790565b634e487b7160e01b600052604160045260246000fd5b601f19601f830116810181811067ffffffffffffffff8211171561180a5761180a6117ce565b6040525050565b600061181c60405190565b905061182882826117e4565b919050565b600067ffffffffffffffff821115611847576118476117ce565b601f19601f83011660200192915050565b82818337506000910152565b60006118776118728461182d565b611811565b90508281526020810184848401111561189257611892600080fd5b61189d848285611858565b509392505050565b600082601f8301126118b9576118b9600080fd5b8135610b89848260208601611864565b600080600080608085870312156118e2576118e2600080fd5b60006118ee87876115ee565b94505060206118ff878288016115ee565b935050604061191087828801611591565b925050606085013567ffffffffffffffff81111561193057611930600080fd5b61193c878288016118a5565b91505092959194509250565b6000806040838503121561195e5761195e600080fd5b600061177785856115ee565b634e487b7160e01b600052602260045260246000fd5b60028104600182168061199457607f821691505b602082108114156119a7576119a761196a565b50919050565b602181526000602082017f4552433732313a20617070726f76616c20746f2063757272656e74206f776e658152603960f91b602082015291505b5060400190565b6020808252810161045b816119ad565b603e81526000602082017f4552433732313a20617070726f76652063616c6c6572206973206e6f7420746f81527f6b656e206f776e6572206e6f7220617070726f76656420666f7220616c6c0000602082015291506119e7565b6020808252810161045b816119fe565b602e81526000602082017f4552433732313a2063616c6c6572206973206e6f7420746f6b656e206f776e6581526d1c881b9bdc88185c1c1c9bdd995960921b602082015291506119e7565b6020808252810161045b81611a68565b601f81526000602082017f5265656e7472616e637947756172643a207265656e7472616e742063616c6c00815291505b5060200190565b6020808252810161045b81611ac3565b601f81526000602082017f43616c6c6572206973206e6f742041697276657274697365466163746f72790081529150611af3565b6020808252810161045b81611b0a565b6015815260006020820174139bc81859191c995cdcd95cc81c9958d95a5d9959605a1b81529150611af3565b6020808252810161045b81611b4e565b634e487b7160e01b600052601160045260246000fd5b6000816000190483118215151615611bba57611bba611b8a565b500290565b601081526000602082016f4e6f7420656e6f7567682066756e647360801b81529150611af3565b6020808252810161045b81611bbf565b634e487b7160e01b600052603260045260246000fd5b60008219821115611c1f57611c1f611b8a565b500190565b6000600019821415611c3857611c38611b8a565b5060010190565b601881526000602082017f4552433732313a20696e76616c696420746f6b656e204944000000000000000081529150611af3565b6020808252810161045b81611c3f565b602981526000602082017f4552433732313a2061646472657373207a65726f206973206e6f7420612076618152683634b21037bbb732b960b91b602082015291506119e7565b6020808252810161045b81611c83565b600f81526000602082016e2737ba103a37b5b2b71037bbb732b960891b81529150611af3565b6020808252810161045b81611cd9565b60008161045b565b60148152600060208201734661696c656420746f2073656e642076616c756560601b81529150611af3565b6020808252810161045b81611d17565b6000611d5c825190565b611d6a81856020860161151c565b9290920192915050565b6000611d808285611d52565b9150610b898284611d52565b602581526000602082017f4552433732313a207472616e736665722066726f6d20696e636f72726563742081526437bbb732b960d91b602082015291506119e7565b6020808252810161045b81611d8c565b602481526000602082017f4552433732313a207472616e7366657220746f20746865207a65726f206164648152637265737360e01b602082015291506119e7565b6020808252810161045b81611dde565b600082821015611e4157611e41611b8a565b500390565b602e81526000602082017f45524337323155524953746f726167653a2055524920736574206f66206e6f6e81526d32bc34b9ba32b73a103a37b5b2b760911b602082015291506119e7565b6020808252810161045b81611e46565b601981526000602082017f4552433732313a20617070726f766520746f2063616c6c65720000000000000081529150611af3565b6020808252810161045b81611ea1565b603281526000602082017f4552433732313a207472616e7366657220746f206e6f6e20455243373231526581527131b2b4bb32b91034b6b83632b6b2b73a32b960711b602082015291506119e7565b6020808252810161045b81611ee5565b601781526000602082017f43616e6e6f74207472616e736665722061697264726f7000000000000000000081529150611af3565b6020808252810161045b81611f44565b60808101611f9682876115ce565b611fa360208301866115ce565b611fb06040830185611741565b8181036060830152611fc28184611548565b9695505050505050565b805161045b816114c1565b600060208284031215611fec57611fec600080fd5b6000610b898484611fcc565b634e487b7160e01b600052601260045260246000fd5b60008261201d5761201d611ff8565b500490565b60008261203157612031611ff8565b500690565b60208082527f4552433732313a206d696e7420746f20746865207a65726f206164647265737391019081526000611af3565b6020808252810161045b81612036565b601c81526000602082017f4552433732313a20746f6b656e20616c7265616479206d696e7465640000000081529150611af3565b6020808252810161045b8161207856fea2646970667358221220684be266a3e44e00108121753d212d0e5cab013b2e26fc5a63f1f14c0ee56eb864736f6c63430008080033",
  "linkReferences": {},
  "deployedLinkReferences": {}
}