{
  "_format": "hh-sol-artifact-1",
  "contractName": "Airvertise",
  "sourceName": "contracts/Airvertise.sol",
  "abi": [
    {
      "inputs": [
        {
          "internalType": "address",
          "name": "_signer",
          "type": "address"
        },
        {
          "internalType": "address",
          "name": "_walletAddress",
          "type": "address"
        }
      ],
      "stateMutability": "nonpayable",
      "type": "constructor"
    },
    {
      "anonymous": false,
      "inputs": [
        {
          "indexed": false,
          "internalType": "address",
          "name": "user",
          "type": "address"
        },
        {
          "indexed": false,
          "internalType": "address",
          "name": "campaignAddress",
          "type": "address"
        },
        {
          "indexed": false,
          "internalType": "uint256",
          "name": "tokenId",
          "type": "uint256"
        }
      ],
      "name": "AirdropClaimed",
      "type": "event"
    },
    {
      "anonymous": false,
      "inputs": [
        {
          "indexed": false,
          "internalType": "address",
          "name": "earningsWalletAddress",
          "type": "address"
        }
      ],
      "name": "AirvertiseWalletAddressUpdated",
      "type": "event"
    },
    {
      "anonymous": false,
      "inputs": [
        {
          "indexed": false,
          "internalType": "address",
          "name": "campaignAddress",
          "type": "address"
        }
      ],
      "name": "CampaignClosed",
      "type": "event"
    },
    {
      "anonymous": false,
      "inputs": [
        {
          "indexed": false,
          "internalType": "address",
          "name": "campaignAddress",
          "type": "address"
        },
        {
          "indexed": false,
          "internalType": "uint256",
          "name": "campaignsCount",
          "type": "uint256"
        }
      ],
      "name": "CampaignCreated",
      "type": "event"
    },
    {
      "anonymous": false,
      "inputs": [
        {
          "indexed": false,
          "internalType": "address",
          "name": "signer",
          "type": "address"
        }
      ],
      "name": "OffchainSignerAddressUpdated",
      "type": "event"
    },
    {
      "anonymous": false,
      "inputs": [
        {
          "indexed": true,
          "internalType": "address",
          "name": "previousOwner",
          "type": "address"
        },
        {
          "indexed": true,
          "internalType": "address",
          "name": "newOwner",
          "type": "address"
        }
      ],
      "name": "OwnershipTransferred",
      "type": "event"
    },
    {
      "anonymous": false,
      "inputs": [
        {
          "indexed": false,
          "internalType": "uint256",
          "name": "percentDivisor",
          "type": "uint256"
        }
      ],
      "name": "PlatformFeesPercentDivisorUpdated",
      "type": "event"
    },
    {
      "inputs": [],
      "name": "DEFAULT_PERCENT_DIVISOR",
      "outputs": [
        {
          "internalType": "uint256",
          "name": "",
          "type": "uint256"
        }
      ],
      "stateMutability": "view",
      "type": "function"
    },
    {
      "inputs": [
        {
          "internalType": "address",
          "name": "",
          "type": "address"
        }
      ],
      "name": "advertisementExists",
      "outputs": [
        {
          "internalType": "bool",
          "name": "",
          "type": "bool"
        }
      ],
      "stateMutability": "view",
      "type": "function"
    },
    {
      "inputs": [
        {
          "internalType": "uint256",
          "name": "",
          "type": "uint256"
        }
      ],
      "name": "advertisements",
      "outputs": [
        {
          "internalType": "address",
          "name": "",
          "type": "address"
        }
      ],
      "stateMutability": "view",
      "type": "function"
    },
    {
      "inputs": [
        {
          "internalType": "address",
          "name": "",
          "type": "address"
        },
        {
          "internalType": "uint256",
          "name": "",
          "type": "uint256"
        }
      ],
      "name": "campaignOwnerToCampaignAddresses",
      "outputs": [
        {
          "internalType": "address",
          "name": "campaignAddress",
          "type": "address"
        },
        {
          "internalType": "bool",
          "name": "active",
          "type": "bool"
        }
      ],
      "stateMutability": "view",
      "type": "function"
    },
    {
      "inputs": [
        {
          "internalType": "uint256",
          "name": "_campaignAddressIndex",
          "type": "uint256"
        },
        {
          "internalType": "uint256",
          "name": "_tokenId",
          "type": "uint256"
        }
      ],
      "name": "claimAirdrop",
      "outputs": [],
      "stateMutability": "nonpayable",
      "type": "function"
    },
    {
      "inputs": [
        {
          "internalType": "uint256",
          "name": "_campaignAddressIndex",
          "type": "uint256"
        }
      ],
      "name": "closeCampaign",
      "outputs": [],
      "stateMutability": "nonpayable",
      "type": "function"
    },
    {
      "inputs": [
        {
          "internalType": "string",
          "name": "_campaignTitle",
          "type": "string"
        },
        {
          "internalType": "string",
          "name": "_campaignDescription",
          "type": "string"
        },
        {
          "internalType": "string",
          "name": "_campaignName",
          "type": "string"
        },
        {
          "internalType": "uint256",
          "name": "_value",
          "type": "uint256"
        },
        {
          "internalType": "string",
          "name": "_advertisementUri",
          "type": "string"
        },
        {
          "internalType": "address[]",
          "name": "_to",
          "type": "address[]"
        },
        {
          "internalType": "uint256",
          "name": "_campaignEndDatetime",
          "type": "uint256"
        }
      ],
      "name": "createCampaign",
      "outputs": [
        {
          "internalType": "address",
          "name": "newAdcampaignAddress",
          "type": "address"
        }
      ],
      "stateMutability": "payable",
      "type": "function"
    },
    {
      "inputs": [],
      "name": "earningsWalletAddress",
      "outputs": [
        {
          "internalType": "address",
          "name": "",
          "type": "address"
        }
      ],
      "stateMutability": "view",
      "type": "function"
    },
    {
      "inputs": [
        {
          "internalType": "address",
          "name": "_address",
          "type": "address"
        }
      ],
      "name": "getOwnerCampaignAddresses",
      "outputs": [
        {
          "components": [
            {
              "internalType": "address",
              "name": "campaignAddress",
              "type": "address"
            },
            {
              "internalType": "bool",
              "name": "active",
              "type": "bool"
            }
          ],
          "internalType": "struct AdCampaignOwner[]",
          "name": "campaigns",
          "type": "tuple[]"
        }
      ],
      "stateMutability": "view",
      "type": "function"
    },
    {
      "inputs": [
        {
          "internalType": "address",
          "name": "_address",
          "type": "address"
        }
      ],
      "name": "getUserCampaignAddresses",
      "outputs": [
        {
          "components": [
            {
              "internalType": "address",
              "name": "campaignAddress",
              "type": "address"
            },
            {
              "internalType": "bool",
              "name": "pendingCollection",
              "type": "bool"
            }
          ],
          "internalType": "struct AdCampaignUser[]",
          "name": "campaigns",
          "type": "tuple[]"
        }
      ],
      "stateMutability": "view",
      "type": "function"
    },
    {
      "inputs": [],
      "name": "owner",
      "outputs": [
        {
          "internalType": "address",
          "name": "",
          "type": "address"
        }
      ],
      "stateMutability": "view",
      "type": "function"
    },
    {
      "inputs": [],
      "name": "platformFeesPercentDivisor",
      "outputs": [
        {
          "internalType": "uint256",
          "name": "",
          "type": "uint256"
        }
      ],
      "stateMutability": "view",
      "type": "function"
    },
    {
      "inputs": [
        {
          "internalType": "uint256",
          "name": "_salt",
          "type": "uint256"
        }
      ],
      "name": "predictAddress",
      "outputs": [
        {
          "internalType": "address",
          "name": "",
          "type": "address"
        }
      ],
      "stateMutability": "view",
      "type": "function"
    },
    {
      "inputs": [],
      "name": "renounceOwnership",
      "outputs": [],
      "stateMutability": "nonpayable",
      "type": "function"
    },
    {
      "inputs": [
        {
          "internalType": "address",
          "name": "_address",
          "type": "address"
        }
      ],
      "name": "setAdvertiseWalletAddress",
      "outputs": [],
      "stateMutability": "nonpayable",
      "type": "function"
    },
    {
      "inputs": [
        {
          "internalType": "uint256",
          "name": "_endTime",
          "type": "uint256"
        },
        {
          "internalType": "uint256",
          "name": "_index",
          "type": "uint256"
        }
      ],
      "name": "setCampaignEndDate",
      "outputs": [],
      "stateMutability": "nonpayable",
      "type": "function"
    },
    {
      "inputs": [
        {
          "internalType": "uint256",
          "name": "_divisor",
          "type": "uint256"
        }
      ],
      "name": "setFees",
      "outputs": [],
      "stateMutability": "nonpayable",
      "type": "function"
    },
    {
      "inputs": [
        {
          "internalType": "address",
          "name": "_signer",
          "type": "address"
        }
      ],
      "name": "setSigner",
      "outputs": [],
      "stateMutability": "nonpayable",
      "type": "function"
    },
    {
      "inputs": [
        {
          "internalType": "address",
          "name": "newOwner",
          "type": "address"
        }
      ],
      "name": "transferOwnership",
      "outputs": [],
      "stateMutability": "nonpayable",
      "type": "function"
    },
    {
      "inputs": [
        {
          "internalType": "address",
          "name": "",
          "type": "address"
        },
        {
          "internalType": "uint256",
          "name": "",
          "type": "uint256"
        }
      ],
      "name": "userToCampaignAddresses",
      "outputs": [
        {
          "internalType": "address",
          "name": "campaignAddress",
          "type": "address"
        },
        {
          "internalType": "bool",
          "name": "pendingCollection",
          "type": "bool"
        }
      ],
      "stateMutability": "view",
      "type": "function"
    },
    {
      "inputs": [],
      "name": "withdrawEarnings",
      "outputs": [],
      "stateMutability": "nonpayable",
      "type": "function"
    }
  ],
  "bytecode": "0x60806040523480156200001157600080fd5b5060405162004879380380620048798339810160408190526200003491620000e3565b6200003f3362000076565b600580546001600160a01b039384166001600160a01b0319918216179091556007805492909316911617905560146006556200011b565b600080546001600160a01b038381166001600160a01b0319831681178455604051919092169283917f8be0079c531659141344cd1fd0a4f28419497f9722a3daafe3b4186f6b6457e09190a35050565b80516001600160a01b0381168114620000de57600080fd5b919050565b60008060408385031215620000f757600080fd5b6200010283620000c6565b91506200011260208401620000c6565b90509250929050565b61474e806200012b6000396000f3fe608060405260043610620001875760003560e01c80637d56c4e911620000db578063b0e1c1e11162000089578063bf1897dc1162000060578063bf1897dc1462000465578063c5a39dca1462000499578063f2fde38b14620004b157600080fd5b8063b0e1c1e11462000403578063b73c6ce91462000428578063bcea610e146200044057600080fd5b806389f3ba0c11620000be57806389f3ba0c146200038a5780638da5cb5b14620003be578063a6c8fe3a14620003de57600080fd5b80637d56c4e914620003435780637f9738ea146200036557600080fd5b80635feab0561162000139578063715018a6116200011c578063715018a614620002e057806378ca7d2014620002f8578063795a20f0146200031d57600080fd5b80635feab05614620002765780636c19e78314620002bb57600080fd5b80633d18678e116200016e5780633d18678e146200020557806341ae6f11146200022c57806347df0505146200025157600080fd5b80632378655c146200018c5780633424777914620001c0575b600080fd5b620001a36200019d366004620017ad565b620004d6565b6040516001600160a01b0390911681526020015b60405180910390f35b348015620001cd57600080fd5b50620001e5620001df366004620018c3565b620009cb565b604080516001600160a01b039093168352901515602083015201620001b7565b3480156200021257600080fd5b506200022a62000224366004620018f0565b62000a0f565b005b3480156200023957600080fd5b506200022a6200024b3660046200190a565b62000aa4565b3480156200025e57600080fd5b506200022a620002703660046200192f565b62000b0a565b3480156200028357600080fd5b50620002aa620002953660046200190a565b60016020526000908152604090205460ff1681565b6040519015158152602001620001b7565b348015620002c857600080fd5b506200022a620002da3660046200190a565b62000bb8565b348015620002ed57600080fd5b506200022a62000c1e565b3480156200030557600080fd5b50620001e562000317366004620018c3565b62000c36565b3480156200032a57600080fd5b5062000334601481565b604051908152602001620001b7565b3480156200035057600080fd5b50600754620001a3906001600160a01b031681565b3480156200037257600080fd5b506200022a620003843660046200192f565b62000c53565b3480156200039757600080fd5b50620003af620003a93660046200190a565b62000e22565b604051620001b7919062001952565b348015620003cb57600080fd5b506000546001600160a01b0316620001a3565b348015620003eb57600080fd5b50620001a3620003fd366004620018f0565b62000eb2565b3480156200041057600080fd5b506200022a62000422366004620018f0565b62000f88565b3480156200043557600080fd5b506200022a62001402565b3480156200044d57600080fd5b50620001a36200045f366004620018f0565b620014ac565b3480156200047257600080fd5b506200048a620004843660046200190a565b620014d7565b604051620001b79190620019b7565b348015620004a657600080fd5b506200033460065481565b348015620004be57600080fd5b506200022a620004d03660046200190a565b62001559565b6000808951116200052e5760405162461bcd60e51b815260206004820152601660248201527f50726f766964652063616d706169676e207469746c650000000000000000000060448201526064015b60405180910390fd5b6000875111620005815760405162461bcd60e51b815260206004820152601560248201527f50726f766964652063616d706169676e206e616d650000000000000000000000604482015260640162000525565b6000855111620005d45760405162461bcd60e51b815260206004820152601a60248201527f50726f766964652063616d706169676e20666c79657220555249000000000000604482015260640162000525565b6000620005e2848862001a25565b9050600060065482620005f6919062001a47565b905062000604818362001a6a565b341015620006555760405162461bcd60e51b815260206004820152601060248201527f4e6f7420656e6f7567682076616c756500000000000000000000000000000000604482015260640162000525565b60008b8a8a8a306040516020016200067295949392919062001ab8565b60405160208183030381529060405280519060200120905060006200069a8260001c62000eb2565b6001600160a01b03811660009081526001602052604090205490915060ff1615620007085760405162461bcd60e51b815260206004820152601760248201527f43616d706169676e20616c726561647920657869737473000000000000000000604482015260640162000525565b6000828e8e8e8e8e308d6006546040516200072390620016a5565b6200073698979695949392919062001b6a565b8190604051809103906000f590508015801562000757573d6000803e3d6000fd5b506001600160a01b0381166000818152600160208181526040808420805460ff191684179055600280549384018155938490527f405787fa12a823e0f2b7631cc41b3ba8828b3321ca811111fa75cd3aa3bb5ace909201805473ffffffffffffffffffffffffffffffffffffffff19168517905591548151938452918301919091529197508792507ffc5b9d1c2c1134048e1792e3ae27d4eee04f460d341711c7088000d2ca218621910160405180910390a1604080518082019091526001600160a01b03871681526001602082015260005b89811015620008de57600360008c8c848181106200084c576200084c62001c13565b90506020020160208101906200086391906200190a565b6001600160a01b03908116825260208083019390935260409091016000908120805460018101825590825290839020855191018054938601511515600160a01b0274ffffffffffffffffffffffffffffffffffffffffff19909416919092161791909117905580620008d58162001c29565b9150506200082a565b506040805180820182526001600160a01b03808a1682526001602080840182815233600090815260048352958620805493840181558652942083519101805494511515600160a01b0274ffffffffffffffffffffffffffffffffffffffffff199095169183169190911793909317909255908316635d8b4d6862000963883462001c47565b8d8d6040518463ffffffff1660e01b81526004016200098492919062001c61565b6000604051808303818588803b1580156200099e57600080fd5b505af1158015620009b3573d6000803e3d6000fd5b50505050505050505050505098975050505050505050565b60046020528160005260406000208181548110620009e857600080fd5b6000918252602090912001546001600160a01b0381169250600160a01b900460ff16905082565b62000a19620015ec565b8062000a685760405162461bcd60e51b815260206004820152601660248201527f44697669736f722063616e6e6f74206265207a65726f00000000000000000000604482015260640162000525565b60068190556040518181527f48a876c9bb303ae572bbddbc971a7df1b91a8249a16d8946551f47d02287403d906020015b60405180910390a150565b62000aae620015ec565b6007805473ffffffffffffffffffffffffffffffffffffffff19166001600160a01b0383169081179091556040519081527fbc9916d5ff34d0513f5d8c1698b4991fbf2e4909c174fe3f2c4980d36d0f9f029060200162000a99565b33600090815260046020526040812080548390811062000b2e5762000b2e62001c13565b6000918252602090912001546040517f460d42bb000000000000000000000000000000000000000000000000000000008152600481018590526001600160a01b039091169150819063460d42bb90602401600060405180830381600087803b15801562000b9a57600080fd5b505af115801562000baf573d6000803e3d6000fd5b50505050505050565b62000bc2620015ec565b6005805473ffffffffffffffffffffffffffffffffffffffff19166001600160a01b0383169081179091556040519081527ff021e068e27d9ebfcf21e2a5c45644fbe921f1814517bda9f19ab644a244f0919060200162000a99565b62000c28620015ec565b62000c34600062001648565b565b60036020528160005260406000208181548110620009e857600080fd5b33600090815260036020526040902080548390811062000c775762000c7762001c13565b600091825260209091200154600160a01b900460ff1662000cdb5760405162461bcd60e51b815260206004820152601960248201527f41697264726f7020616c726561647920636f6c6c656374656400000000000000604482015260640162000525565b33600090815260036020526040812080548490811062000cff5762000cff62001c13565b600091825260208083209091018054931515600160a01b0260ff60a01b199094169390931790925533815260039091526040812080548490811062000d485762000d4862001c13565b6000918252602090912001546040517f93575f97000000000000000000000000000000000000000000000000000000008152600481018490523360248201526001600160a01b03909116915081906393575f9790604401600060405180830381600087803b15801562000dba57600080fd5b505af115801562000dcf573d6000803e3d6000fd5b5050604080513381526001600160a01b03851660208201529081018590527fb0a0840c7bb9b6ecca130f40e5b8f2158da27eb5c5c9432c8f424a520c8b55d19250606001905060405180910390a1505050565b6001600160a01b0381166000908152600360209081526040808320805482518185028101850190935280835260609492939192909184015b8282101562000ea757600084815260209081902060408051808201909152908401546001600160a01b0381168252600160a01b900460ff1615158183015282526001909201910162000e5a565b505050509050919050565b6000806040518060200162000ec790620016a5565b601f1982820381018352601f9091011660408181523060208301520160408051601f198184030181529082905262000f03929160200162001cb1565b60408051808303601f1901815282825280516020918201207fff00000000000000000000000000000000000000000000000000000000000000828501523060601b6bffffffffffffffffffffffff1916602185015260358401969096526055808401969096528151808403909601865260759092019052835193019290922092915050565b33600090815260046020526040902080548290811062000fac5762000fac62001c13565b600091825260209091200154600160a01b900460ff16620010105760405162461bcd60e51b815260206004820152601760248201527f43616d706169676e20616c726561647920636c6f736564000000000000000000604482015260640162000525565b33600090815260046020526040812080548390811062001034576200103462001c13565b600091825260208083209091018054931515600160a01b0260ff60a01b19909416939093179092553381526004909152604081208054839081106200107d576200107d62001c13565b6000918252602080832090910154604080517fd921fe9200000000000000000000000000000000000000000000000000000000815290516001600160a01b039092169450849392849263d921fe92926004808201939291829003018186803b158015620010e957600080fd5b505afa158015620010fe573d6000803e3d6000fd5b505050506040513d601f19601f8201168201806040525081019062001124919062001ce4565b826001600160a01b03166398bdf6f56040518163ffffffff1660e01b815260040160206040518083038186803b1580156200115e57600080fd5b505afa15801562001173573d6000803e3d6000fd5b505050506040513d601f19601f8201168201806040525081019062001199919062001ce4565b620011a5919062001c47565b90506000826001600160a01b03166373fbc5b36040518163ffffffff1660e01b815260040160206040518083038186803b158015620011e357600080fd5b505afa158015620011f8573d6000803e3d6000fd5b505050506040513d601f19601f820116820180604052508101906200121e919062001ce4565b836001600160a01b031663a7c7d2a06040518163ffffffff1660e01b815260040160206040518083038186803b1580156200125857600080fd5b505afa1580156200126d573d6000803e3d6000fd5b505050506040513d601f19601f8201168201806040525081019062001293919062001ce4565b6200129f908462001a25565b620012ab919062001a47565b6040517f67f5f32d0000000000000000000000000000000000000000000000000000000081523360048201529091506001600160a01b038416906367f5f32d90602401600060405180830381600087803b1580156200130957600080fd5b505af11580156200131e573d6000803e3d6000fd5b50506040516000925033915083908381818185875af1925050503d806000811462001366576040519150601f19603f3d011682016040523d82523d6000602084013e6200136b565b606091505b5050905080620013be5760405162461bcd60e51b815260206004820152601a60248201527f4661696c656420746f2073656e64206665657320726566756e64000000000000604482015260640162000525565b6040516001600160a01b03861681527f2cc6b7f4a64721896dc69033b18d6cafb9edb171b7266f50cf6167dfaf2c9fe09060200160405180910390a1505050505050565b6007546040516000916001600160a01b03169047908381818185875af1925050503d806000811462001451576040519150601f19603f3d011682016040523d82523d6000602084013e62001456565b606091505b5050905080620014a95760405162461bcd60e51b815260206004820152601860248201527f4561726e696e6773207769746864726177206661696c65640000000000000000604482015260640162000525565b50565b60028181548110620014bd57600080fd5b6000918252602090912001546001600160a01b0316905081565b6001600160a01b038116600090815260046020908152604080832080548251818502810185019093528083526060949293919290918401821562000ea757600084815260209081902060408051808201909152908401546001600160a01b0381168252600160a01b900460ff1615158183015282526001909201910162000e5a565b62001563620015ec565b6001600160a01b038116620015e15760405162461bcd60e51b815260206004820152602660248201527f4f776e61626c653a206e6577206f776e657220697320746865207a65726f206160448201527f6464726573730000000000000000000000000000000000000000000000000000606482015260840162000525565b620014a98162001648565b6000546001600160a01b0316331462000c345760405162461bcd60e51b815260206004820181905260248201527f4f776e61626c653a2063616c6c6572206973206e6f7420746865206f776e6572604482015260640162000525565b600080546001600160a01b0383811673ffffffffffffffffffffffffffffffffffffffff19831681178455604051919092169283917f8be0079c531659141344cd1fd0a4f28419497f9722a3daafe3b4186f6b6457e09190a35050565b612a1a8062001cff83390190565b634e487b7160e01b600052604160045260246000fd5b600082601f830112620016db57600080fd5b813567ffffffffffffffff80821115620016f957620016f9620016b3565b604051601f8301601f19908116603f01168101908282118183101715620017245762001724620016b3565b816040528381528660208588010111156200173e57600080fd5b836020870160208301376000602085830101528094505050505092915050565b60008083601f8401126200177157600080fd5b50813567ffffffffffffffff8111156200178a57600080fd5b6020830191508360208260051b8501011115620017a657600080fd5b9250929050565b60008060008060008060008060e0898b031215620017ca57600080fd5b883567ffffffffffffffff80821115620017e357600080fd5b620017f18c838d01620016c9565b995060208b01359150808211156200180857600080fd5b620018168c838d01620016c9565b985060408b01359150808211156200182d57600080fd5b6200183b8c838d01620016c9565b975060608b0135965060808b01359150808211156200185957600080fd5b620018678c838d01620016c9565b955060a08b01359150808211156200187e57600080fd5b506200188d8b828c016200175e565b999c989b50969995989497949560c00135949350505050565b80356001600160a01b0381168114620018be57600080fd5b919050565b60008060408385031215620018d757600080fd5b620018e283620018a6565b946020939093013593505050565b6000602082840312156200190357600080fd5b5035919050565b6000602082840312156200191d57600080fd5b6200192882620018a6565b9392505050565b600080604083850312156200194357600080fd5b50508035926020909101359150565b602080825282518282018190526000919060409081850190868401855b82811015620019aa576200199984835180516001600160a01b031682526020908101511515910152565b92840192908501906001016200196f565b5091979650505050505050565b602080825282518282018190526000919060409081850190868401855b82811015620019aa57620019fe84835180516001600160a01b031682526020908101511515910152565b9284019290850190600101620019d4565b634e487b7160e01b600052601160045260246000fd5b600081600019048311821515161562001a425762001a4262001a0f565b500290565b60008262001a6557634e487b7160e01b600052601260045260246000fd5b500490565b6000821982111562001a805762001a8062001a0f565b500190565b60005b8381101562001aa257818101518382015260200162001a88565b8381111562001ab2576000848401525b50505050565b6000865162001acc818460208b0162001a85565b64105254905160da1b908301908152865162001af0816005840160208b0162001a85565b0160058101869052845162001b0d81602584016020890162001a85565b60609490941b6bffffffffffffffffffffffff1916602591909401908101939093525050603901949350505050565b6000815180845262001b5681602086016020860162001a85565b601f01601f19169290920160200192915050565b600061012080835262001b808184018c62001b3c565b90508281038060208501526005825264105254905160da1b60208301526040810160408501525062001bb6604082018b62001b3c565b9050828103606084015262001bcc818a62001b3c565b905087608084015282810360a084015262001be8818862001b3c565b6001600160a01b039690961660c0840152505060e08101929092526101009091015295945050505050565b634e487b7160e01b600052603260045260246000fd5b600060001982141562001c405762001c4062001a0f565b5060010190565b60008282101562001c5c5762001c5c62001a0f565b500390565b60208082528181018390526000908460408401835b8681101562001ca6576001600160a01b0362001c9284620018a6565b168252918301919083019060010162001c76565b509695505050505050565b6000835162001cc581846020880162001a85565b83519083019062001cdb81836020880162001a85565b01949350505050565b60006020828403121562001cf757600080fd5b505191905056fe60806040523480156200001157600080fd5b5060405162002a1a38038062002a1a8339810160408190526200003491620002e4565b6001600081905589518a918a91620000529190602085019062000154565b5080516200006890600290602084019062000154565b50505081600014806200007b5750428210155b620000cc5760405162461bcd60e51b815260206004820152601e60248201527f43616d706169676e2063616e6e6f7420656e64206265666f7265206e6f770000604482015260640160405180910390fd5b8651620000e19060099060208a019062000154565b508551620000f790600a90602089019062000154565b50600885905583516200011290600b90602087019062000154565b50601280546001600160a01b0319166001600160a01b039490941693909317909255600c55600d555050600e805460ff19166001179055506200043292505050565b8280546200016290620003f5565b90600052602060002090601f016020900481019282620001865760008555620001d1565b82601f10620001a157805160ff1916838001178555620001d1565b82800160010185558215620001d1579182015b82811115620001d1578251825591602001919060010190620001b4565b50620001df929150620001e3565b5090565b5b80821115620001df5760008155600101620001e4565b634e487b7160e01b600052604160045260246000fd5b600082601f8301126200022257600080fd5b81516001600160401b03808211156200023f576200023f620001fa565b604051601f8301601f19908116603f011681019082821181831017156200026a576200026a620001fa565b816040528381526020925086838588010111156200028757600080fd5b600091505b83821015620002ab57858201830151818301840152908201906200028c565b83821115620002bd5760008385830101525b9695505050505050565b80516001600160a01b0381168114620002df57600080fd5b919050565b60008060008060008060008060006101208a8c0312156200030457600080fd5b89516001600160401b03808211156200031c57600080fd5b6200032a8d838e0162000210565b9a5060208c01519150808211156200034157600080fd5b6200034f8d838e0162000210565b995060408c01519150808211156200036657600080fd5b620003748d838e0162000210565b985060608c01519150808211156200038b57600080fd5b620003998d838e0162000210565b975060808c0151965060a08c0151915080821115620003b757600080fd5b50620003c68c828d0162000210565b945050620003d760c08b01620002c7565b925060e08a015191506101008a015190509295985092959850929598565b600181811c908216806200040a57607f821691505b602082108114156200042c57634e487b7160e01b600052602260045260246000fd5b50919050565b6125d880620004426000396000f3fe6080604052600436106101c25760003560e01c806370a08231116100f7578063a22cb46511610095578063d921fe9211610064578063d921fe92146104e8578063e2d732df146104fe578063e985e9c51461051e578063f387bcac1461056757600080fd5b8063a22cb46514610472578063a7c7d2a014610492578063b88d4fde146104a8578063c87b56dd146104c857600080fd5b80638cbab7e4116100d15780638cbab7e4146103f157806393575f971461042757806395d89b411461044757806398bdf6f51461045c57600080fd5b806370a08231146103a657806373fbc5b3146103c657806381701f37146103dc57600080fd5b806323b872dd116101645780635d8b4d681161013e5780635d8b4d68146103265780636352211e146103395780636511bf2e1461035957806367f5f32d1461038657600080fd5b806323b872dd146102c657806342842e0e146102e6578063460d42bb1461030657600080fd5b80630724fda9116101a05780630724fda914610242578063081812fc14610257578063095ea7b31461028f578063110842cb146102b157600080fd5b806301ffc9a7146101c7578063059479af146101fc57806306fdde0314610220575b600080fd5b3480156101d357600080fd5b506101e76101e23660046120d5565b610581565b60405190151581526020015b60405180910390f35b34801561020857600080fd5b50610212600c5481565b6040519081526020016101f3565b34801561022c57600080fd5b5061023561061e565b6040516101f3919061214a565b34801561024e57600080fd5b506102356106b0565b34801561026357600080fd5b5061027761027236600461215d565b61073e565b6040516001600160a01b0390911681526020016101f3565b34801561029b57600080fd5b506102af6102aa366004612192565b610765565b005b3480156102bd57600080fd5b50610235610880565b3480156102d257600080fd5b506102af6102e13660046121bc565b61088d565b3480156102f257600080fd5b506102af6103013660046121bc565b610914565b34801561031257600080fd5b506102af61032136600461215d565b61092f565b6102af6103343660046121f8565b610a6c565b34801561034557600080fd5b5061027761035436600461215d565b610d31565b34801561036557600080fd5b5061021261037436600461226d565b60116020526000908152604090205481565b34801561039257600080fd5b506102af6103a136600461226d565b610d96565b3480156103b257600080fd5b506102126103c136600461226d565b610f24565b3480156103d257600080fd5b50610212600d5481565b3480156103e857600080fd5b50610235610fbe565b3480156103fd57600080fd5b5061021261040c36600461226d565b6001600160a01b031660009081526011602052604090205490565b34801561043357600080fd5b506102af610442366004612288565b610fcb565b34801561045357600080fd5b506102356112aa565b34801561046857600080fd5b50610212600f5481565b34801561047e57600080fd5b506102af61048d3660046122b4565b6112b9565b34801561049e57600080fd5b5061021260085481565b3480156104b457600080fd5b506102af6104c3366004612306565b6112c8565b3480156104d457600080fd5b506102356104e336600461215d565b611356565b3480156104f457600080fd5b5061021260105481565b34801561050a57600080fd5b50601254610277906001600160a01b031681565b34801561052a57600080fd5b506101e76105393660046123e2565b6001600160a01b03918216600090815260066020908152604080832093909416825291909152205460ff1690565b34801561057357600080fd5b50600e546101e79060ff1681565b60006001600160e01b031982167f80ac58cd0000000000000000000000000000000000000000000000000000000014806105e457506001600160e01b031982167f5b5e139f00000000000000000000000000000000000000000000000000000000145b8061061857507f01ffc9a7000000000000000000000000000000000000000000000000000000006001600160e01b03198316145b92915050565b60606001805461062d9061240c565b80601f01602080910402602001604051908101604052809291908181526020018280546106599061240c565b80156106a65780601f1061067b576101008083540402835291602001916106a6565b820191906000526020600020905b81548152906001019060200180831161068957829003601f168201915b5050505050905090565b600a80546106bd9061240c565b80601f01602080910402602001604051908101604052809291908181526020018280546106e99061240c565b80156107365780601f1061070b57610100808354040283529160200191610736565b820191906000526020600020905b81548152906001019060200180831161071957829003601f168201915b505050505081565b600061074982611467565b506000908152600560205260409020546001600160a01b031690565b600061077082610d31565b9050806001600160a01b0316836001600160a01b031614156107e35760405162461bcd60e51b815260206004820152602160248201527f4552433732313a20617070726f76616c20746f2063757272656e74206f776e656044820152603960f91b60648201526084015b60405180910390fd5b336001600160a01b03821614806107ff57506107ff8133610539565b6108715760405162461bcd60e51b815260206004820152603e60248201527f4552433732313a20617070726f76652063616c6c6572206973206e6f7420746f60448201527f6b656e206f776e6572206e6f7220617070726f76656420666f7220616c6c000060648201526084016107da565b61087b83836114ce565b505050565b600980546106bd9061240c565b6108973382611549565b6109095760405162461bcd60e51b815260206004820152602e60248201527f4552433732313a2063616c6c6572206973206e6f7420746f6b656e206f776e6560448201527f72206e6f7220617070726f76656400000000000000000000000000000000000060648201526084016107da565b61087b8383836115c7565b61087b838383604051806020016040528060008152506112c8565b6012546001600160a01b031633146109895760405162461bcd60e51b815260206004820152601f60248201527f43616c6c6572206973206e6f742041697276657274697365466163746f72790060448201526064016107da565b80158061099557504281115b6109e15760405162461bcd60e51b815260206004820152601e60248201527f43616d706169676e2063616e6e6f7420656e64206265666f7265206e6f77000060448201526064016107da565b600e5460ff16610a335760405162461bcd60e51b815260206004820181905260248201527f43616d706169676e20656e6465642062792063616d706169676e206f776e657260448201526064016107da565b600c546040519081527fbbb265210fe50a6605807be38b899727f1588d8e0559ebb64f228ddeb1d9e9989060200160405180910390a150565b60026000541415610abf5760405162461bcd60e51b815260206004820152601f60248201527f5265656e7472616e637947756172643a207265656e7472616e742063616c6c0060448201526064016107da565b60026000556012546001600160a01b03163314610b1e5760405162461bcd60e51b815260206004820152601f60248201527f43616c6c6572206973206e6f742041697276657274697365466163746f72790060448201526064016107da565b80610b6b5760405162461bcd60e51b815260206004820152601560248201527f4e6f20616464726573736573207265636569766564000000000000000000000060448201526064016107da565b600854610b7990829061245d565b341015610bc85760405162461bcd60e51b815260206004820152601060248201527f4e6f7420656e6f7567682066756e64730000000000000000000000000000000060448201526064016107da565b60005b81811015610d1657610c10838383818110610be857610be861247c565b9050602002016020810190610bfd919061226d565b82600f54610c0b9190612492565b6117ac565b610cb181600f54610c219190612492565b600b8054610c2e9061240c565b80601f0160208091040260200160405190810160405280929190818152602001828054610c5a9061240c565b8015610ca75780601f10610c7c57610100808354040283529160200191610ca7565b820191906000526020600020905b815481529060010190602001808311610c8a57829003601f168201915b50505050506117c6565b80600f54610cbf9190612492565b60116000858585818110610cd557610cd561247c565b9050602002016020810190610cea919061226d565b6001600160a01b0316815260208101919091526040016000205580610d0e816124aa565b915050610bcb565b50600f54610d25908290612492565b600f5550506001600055565b6000818152600360205260408120546001600160a01b0316806106185760405162461bcd60e51b815260206004820152601860248201527f4552433732313a20696e76616c696420746f6b656e204944000000000000000060448201526064016107da565b6012546001600160a01b03163314610df05760405162461bcd60e51b815260206004820152601f60248201527f43616c6c6572206973206e6f742041697276657274697365466163746f72790060448201526064016107da565b600e5460ff16610e425760405162461bcd60e51b815260206004820152601760248201527f43616d706169676e20616c726561647920636c6f73656400000000000000000060448201526064016107da565b600e805460ff191690556040516000906001600160a01b0383169047908381818185875af1925050503d8060008114610e97576040519150601f19603f3d011682016040523d82523d6000602084013e610e9c565b606091505b5050905080610eed5760405162461bcd60e51b815260206004820152601d60248201527f4661696c656420746f2073656e642061697264726f7020726566756e6400000060448201526064016107da565b6040514281527f5e6eb33a418de5dbbc17f989f7ae362cdfbb1748c5d603137c767027a354edbc9060200160405180910390a15050565b60006001600160a01b038216610fa25760405162461bcd60e51b815260206004820152602960248201527f4552433732313a2061646472657373207a65726f206973206e6f74206120766160448201527f6c6964206f776e6572000000000000000000000000000000000000000000000060648201526084016107da565b506001600160a01b031660009081526004602052604090205490565b600b80546106bd9061240c565b6002600054141561101e5760405162461bcd60e51b815260206004820152601f60248201527f5265656e7472616e637947756172643a207265656e7472616e742063616c6c0060448201526064016107da565b60026000556012546001600160a01b0316331461107d5760405162461bcd60e51b815260206004820152601f60248201527f43616c6c6572206973206e6f742041697276657274697365466163746f72790060448201526064016107da565b61108682610d31565b6001600160a01b0316816001600160a01b0316146110e65760405162461bcd60e51b815260206004820152600f60248201527f4e6f7420746f6b656e206f776e6572000000000000000000000000000000000060448201526064016107da565b600e5460ff166111425760405162461bcd60e51b815260206004820152602160248201527f43616d706169676e20636c6f7365642062792063616d706169676e206f776e656044820152603960f91b60648201526084016107da565b600c541580611153575042600c5410155b61119f5760405162461bcd60e51b815260206004820152601560248201527f43616d706169676e206861732066696e6973686564000000000000000000000060448201526064016107da565b601080549060006111af836124aa565b91905055506111bd8261186f565b6008546040516000916001600160a01b038416918381818185875af1925050503d8060008114611209576040519150601f19603f3d011682016040523d82523d6000602084013e61120e565b606091505b505090508061125f5760405162461bcd60e51b815260206004820152601560248201527f4661696c656420746f2073656e6420726566756e64000000000000000000000060448201526064016107da565b604080516001600160a01b03841681524260208201527f650e45f04ef8a0c267b2f78d983913f69ae3a353b2b32de5429307522be0ab55910160405180910390a15050600160005550565b60606002805461062d9061240c565b6112c43383836118af565b5050565b6112d23383611549565b6113445760405162461bcd60e51b815260206004820152602e60248201527f4552433732313a2063616c6c6572206973206e6f7420746f6b656e206f776e6560448201527f72206e6f7220617070726f76656400000000000000000000000000000000000060648201526084016107da565b6113508484848461197e565b50505050565b606061136182611467565b6000828152600760205260408120805461137a9061240c565b80601f01602080910402602001604051908101604052809291908181526020018280546113a69061240c565b80156113f35780601f106113c8576101008083540402835291602001916113f3565b820191906000526020600020905b8154815290600101906020018083116113d657829003601f168201915b50505050509050600061141160408051602081019091526000815290565b9050805160001415611424575092915050565b81511561145657808260405160200161143e9291906124c5565b60405160208183030381529060405292505050919050565b61145f846119fc565b949350505050565b6000818152600360205260409020546001600160a01b03166114cb5760405162461bcd60e51b815260206004820152601860248201527f4552433732313a20696e76616c696420746f6b656e204944000000000000000060448201526064016107da565b50565b6000818152600560205260409020805473ffffffffffffffffffffffffffffffffffffffff19166001600160a01b038416908117909155819061151082610d31565b6001600160a01b03167f8c5be1e5ebec7d5bd14f71427d1e84f3dd0314c0f7b2291e5b200ac8c7c3b92560405160405180910390a45050565b60008061155583610d31565b9050806001600160a01b0316846001600160a01b0316148061159c57506001600160a01b0380821660009081526006602090815260408083209388168352929052205460ff165b8061145f5750836001600160a01b03166115b58461073e565b6001600160a01b031614949350505050565b826001600160a01b03166115da82610d31565b6001600160a01b0316146116565760405162461bcd60e51b815260206004820152602560248201527f4552433732313a207472616e736665722066726f6d20696e636f72726563742060448201527f6f776e657200000000000000000000000000000000000000000000000000000060648201526084016107da565b6001600160a01b0382166116d15760405162461bcd60e51b8152602060048201526024808201527f4552433732313a207472616e7366657220746f20746865207a65726f2061646460448201527f726573730000000000000000000000000000000000000000000000000000000060648201526084016107da565b6116dc838383611a70565b6116e76000826114ce565b6001600160a01b03831660009081526004602052604081208054600192906117109084906124f4565b90915550506001600160a01b038216600090815260046020526040812080546001929061173e908490612492565b9091555050600081815260036020526040808220805473ffffffffffffffffffffffffffffffffffffffff19166001600160a01b0386811691821790925591518493918716917fddf252ad1be2c89b69c2b068fc378daa952ba7f163c4a11628f55a4df523b3ef91a4505050565b6112c4828260405180602001604052806000815250611ad9565b6000828152600360205260409020546001600160a01b03166118505760405162461bcd60e51b815260206004820152602e60248201527f45524337323155524953746f726167653a2055524920736574206f66206e6f6e60448201527f6578697374656e7420746f6b656e00000000000000000000000000000000000060648201526084016107da565b6000828152600760209081526040909120825161087b92840190611ff0565b61187881611b57565b600081815260076020526040902080546118919061240c565b1590506114cb5760008181526007602052604081206114cb91612074565b816001600160a01b0316836001600160a01b031614156119115760405162461bcd60e51b815260206004820152601960248201527f4552433732313a20617070726f766520746f2063616c6c65720000000000000060448201526064016107da565b6001600160a01b03838116600081815260066020908152604080832094871680845294825291829020805460ff191686151590811790915591519182527f17307eab39ab6107e8899845ad3d59bd9653f200f220920489ca2b5937696c31910160405180910390a3505050565b6119898484846115c7565b61199584848484611c0b565b6113505760405162461bcd60e51b815260206004820152603260248201527f4552433732313a207472616e7366657220746f206e6f6e20455243373231526560448201527131b2b4bb32b91034b6b83632b6b2b73a32b960711b60648201526084016107da565b6060611a0782611467565b6000611a1e60408051602081019091526000815290565b90506000815111611a3e5760405180602001604052806000815250611a69565b80611a4884611d63565b604051602001611a599291906124c5565b6040516020818303038152906040525b9392505050565b6001600160a01b0383161580611a8d57506001600160a01b038216155b61087b5760405162461bcd60e51b815260206004820152601760248201527f43616e6e6f74207472616e736665722061697264726f7000000000000000000060448201526064016107da565b611ae38383611e95565b611af06000848484611c0b565b61087b5760405162461bcd60e51b815260206004820152603260248201527f4552433732313a207472616e7366657220746f206e6f6e20455243373231526560448201527131b2b4bb32b91034b6b83632b6b2b73a32b960711b60648201526084016107da565b6000611b6282610d31565b9050611b7081600084611a70565b611b7b6000836114ce565b6001600160a01b0381166000908152600460205260408120805460019290611ba49084906124f4565b9091555050600082815260036020526040808220805473ffffffffffffffffffffffffffffffffffffffff19169055518391906001600160a01b038416907fddf252ad1be2c89b69c2b068fc378daa952ba7f163c4a11628f55a4df523b3ef908390a45050565b60006001600160a01b0384163b15611d5857604051630a85bd0160e11b81526001600160a01b0385169063150b7a0290611c4f90339089908890889060040161250b565b602060405180830381600087803b158015611c6957600080fd5b505af1925050508015611c99575060408051601f3d908101601f19168201909252611c9691810190612547565b60015b611d3e573d808015611cc7576040519150601f19603f3d011682016040523d82523d6000602084013e611ccc565b606091505b508051611d365760405162461bcd60e51b815260206004820152603260248201527f4552433732313a207472616e7366657220746f206e6f6e20455243373231526560448201527131b2b4bb32b91034b6b83632b6b2b73a32b960711b60648201526084016107da565b805181602001fd5b6001600160e01b031916630a85bd0160e11b14905061145f565b506001949350505050565b606081611da357505060408051808201909152600181527f3000000000000000000000000000000000000000000000000000000000000000602082015290565b8160005b8115611dcd5780611db7816124aa565b9150611dc69050600a8361257a565b9150611da7565b60008167ffffffffffffffff811115611de857611de86122f0565b6040519080825280601f01601f191660200182016040528015611e12576020820181803683370190505b5090505b841561145f57611e276001836124f4565b9150611e34600a8661258e565b611e3f906030612492565b60f81b818381518110611e5457611e5461247c565b60200101907effffffffffffffffffffffffffffffffffffffffffffffffffffffffffffff1916908160001a905350611e8e600a8661257a565b9450611e16565b6001600160a01b038216611eeb5760405162461bcd60e51b815260206004820181905260248201527f4552433732313a206d696e7420746f20746865207a65726f206164647265737360448201526064016107da565b6000818152600360205260409020546001600160a01b031615611f505760405162461bcd60e51b815260206004820152601c60248201527f4552433732313a20746f6b656e20616c7265616479206d696e7465640000000060448201526064016107da565b611f5c60008383611a70565b6001600160a01b0382166000908152600460205260408120805460019290611f85908490612492565b9091555050600081815260036020526040808220805473ffffffffffffffffffffffffffffffffffffffff19166001600160a01b03861690811790915590518392907fddf252ad1be2c89b69c2b068fc378daa952ba7f163c4a11628f55a4df523b3ef908290a45050565b828054611ffc9061240c565b90600052602060002090601f01602090048101928261201e5760008555612064565b82601f1061203757805160ff1916838001178555612064565b82800160010185558215612064579182015b82811115612064578251825591602001919060010190612049565b506120709291506120aa565b5090565b5080546120809061240c565b6000825580601f10612090575050565b601f0160209004906000526020600020908101906114cb91905b5b8082111561207057600081556001016120ab565b6001600160e01b0319811681146114cb57600080fd5b6000602082840312156120e757600080fd5b8135611a69816120bf565b60005b8381101561210d5781810151838201526020016120f5565b838111156113505750506000910152565b600081518084526121368160208601602086016120f2565b601f01601f19169290920160200192915050565b602081526000611a69602083018461211e565b60006020828403121561216f57600080fd5b5035919050565b80356001600160a01b038116811461218d57600080fd5b919050565b600080604083850312156121a557600080fd5b6121ae83612176565b946020939093013593505050565b6000806000606084860312156121d157600080fd5b6121da84612176565b92506121e860208501612176565b9150604084013590509250925092565b6000806020838503121561220b57600080fd5b823567ffffffffffffffff8082111561222357600080fd5b818501915085601f83011261223757600080fd5b81358181111561224657600080fd5b8660208260051b850101111561225b57600080fd5b60209290920196919550909350505050565b60006020828403121561227f57600080fd5b611a6982612176565b6000806040838503121561229b57600080fd5b823591506122ab60208401612176565b90509250929050565b600080604083850312156122c757600080fd5b6122d083612176565b9150602083013580151581146122e557600080fd5b809150509250929050565b634e487b7160e01b600052604160045260246000fd5b6000806000806080858703121561231c57600080fd5b61232585612176565b935061233360208601612176565b925060408501359150606085013567ffffffffffffffff8082111561235757600080fd5b818701915087601f83011261236b57600080fd5b81358181111561237d5761237d6122f0565b604051601f8201601f19908116603f011681019083821181831017156123a5576123a56122f0565b816040528281528a60208487010111156123be57600080fd5b82602086016020830137600060208483010152809550505050505092959194509250565b600080604083850312156123f557600080fd5b6123fe83612176565b91506122ab60208401612176565b600181811c9082168061242057607f821691505b6020821081141561244157634e487b7160e01b600052602260045260246000fd5b50919050565b634e487b7160e01b600052601160045260246000fd5b600081600019048311821515161561247757612477612447565b500290565b634e487b7160e01b600052603260045260246000fd5b600082198211156124a5576124a5612447565b500190565b60006000198214156124be576124be612447565b5060010190565b600083516124d78184602088016120f2565b8351908301906124eb8183602088016120f2565b01949350505050565b60008282101561250657612506612447565b500390565b60006001600160a01b0380871683528086166020840152508360408301526080606083015261253d608083018461211e565b9695505050505050565b60006020828403121561255957600080fd5b8151611a69816120bf565b634e487b7160e01b600052601260045260246000fd5b60008261258957612589612564565b500490565b60008261259d5761259d612564565b50069056fea2646970667358221220235628e7dac33d7b126056f33983b7f3a42bd548444f8adac8849498d3492b1064736f6c63430008080033a26469706673582212208c2fd3df6e248d15e29423dd23f53909720b4165c31443bd5a738cedf583b82564736f6c63430008080033",
  "linkReferences": {},
  "deployedLinkReferences": {}
}