{
  "_format": "hh-sol-artifact-1",
  "contractName": "AirvertiseNFT",
  "sourceName": "contracts/AirvertiseNFT.sol",
  "abi": [
    {
      "inputs": [
        {
          "internalType": "string",
          "name": "__campaignTitle",
          "type": "string"
        },
        {
          "internalType": "string",
          "name": "__symbol",
          "type": "string"
        },
        {
          "internalType": "string",
          "name": "_campaignDescription",
          "type": "string"
        },
        {
          "internalType": "string",
          "name": "_campaignName",
          "type": "string"
        },
        {
          "internalType": "uint256",
          "name": "_value",
          "type": "uint256"
        },
        {
          "internalType": "string",
          "name": "_advertisementUri",
          "type": "string"
        },
        {
          "internalType": "address",
          "name": "_airvertiseFactoryAddress",
          "type": "address"
        },
        {
          "internalType": "uint256",
          "name": "_campaignEndDatetime",
          "type": "uint256"
        },
        {
          "internalType": "uint256",
          "name": "_percentFeeDivisor",
          "type": "uint256"
        }
      ],
      "stateMutability": "nonpayable",
      "type": "constructor"
    },
    {
      "anonymous": false,
      "inputs": [
        {
          "indexed": false,
          "internalType": "address",
          "name": "tokenOwnerAddress",
          "type": "address"
        },
        {
          "indexed": false,
          "internalType": "uint256",
          "name": "claimDatetime",
          "type": "uint256"
        }
      ],
      "name": "AirdropClaimed",
      "type": "event"
    },
    {
      "anonymous": false,
      "inputs": [
        {
          "indexed": true,
          "internalType": "address",
          "name": "owner",
          "type": "address"
        },
        {
          "indexed": true,
          "internalType": "address",
          "name": "approved",
          "type": "address"
        },
        {
          "indexed": true,
          "internalType": "uint256",
          "name": "tokenId",
          "type": "uint256"
        }
      ],
      "name": "Approval",
      "type": "event"
    },
    {
      "anonymous": false,
      "inputs": [
        {
          "indexed": true,
          "internalType": "address",
          "name": "owner",
          "type": "address"
        },
        {
          "indexed": true,
          "internalType": "address",
          "name": "operator",
          "type": "address"
        },
        {
          "indexed": false,
          "internalType": "bool",
          "name": "approved",
          "type": "bool"
        }
      ],
      "name": "ApprovalForAll",
      "type": "event"
    },
    {
      "anonymous": false,
      "inputs": [
        {
          "indexed": false,
          "internalType": "uint256",
          "name": "closeDatetime",
          "type": "uint256"
        }
      ],
      "name": "CampaignClosed",
      "type": "event"
    },
    {
      "anonymous": false,
      "inputs": [
        {
          "indexed": false,
          "internalType": "uint256",
          "name": "newEndDate",
          "type": "uint256"
        }
      ],
      "name": "CampaignEndDateUpdated",
      "type": "event"
    },
    {
      "anonymous": false,
      "inputs": [
        {
          "indexed": true,
          "internalType": "address",
          "name": "from",
          "type": "address"
        },
        {
          "indexed": true,
          "internalType": "address",
          "name": "to",
          "type": "address"
        },
        {
          "indexed": true,
          "internalType": "uint256",
          "name": "tokenId",
          "type": "uint256"
        }
      ],
      "name": "Transfer",
      "type": "event"
    },
    {
      "inputs": [
        {
          "internalType": "address",
          "name": "",
          "type": "address"
        }
      ],
      "name": "addressToTokenId",
      "outputs": [
        {
          "internalType": "uint256",
          "name": "",
          "type": "uint256"
        }
      ],
      "stateMutability": "view",
      "type": "function"
    },
    {
      "inputs": [],
      "name": "advertisementUri",
      "outputs": [
        {
          "internalType": "string",
          "name": "",
          "type": "string"
        }
      ],
      "stateMutability": "view",
      "type": "function"
    },
    {
      "inputs": [],
      "name": "airdropValue",
      "outputs": [
        {
          "internalType": "uint256",
          "name": "",
          "type": "uint256"
        }
      ],
      "stateMutability": "view",
      "type": "function"
    },
    {
      "inputs": [],
      "name": "airvertiseFactoryAddress",
      "outputs": [
        {
          "internalType": "address",
          "name": "",
          "type": "address"
        }
      ],
      "stateMutability": "view",
      "type": "function"
    },
    {
      "inputs": [
        {
          "internalType": "address",
          "name": "to",
          "type": "address"
        },
        {
          "internalType": "uint256",
          "name": "tokenId",
          "type": "uint256"
        }
      ],
      "name": "approve",
      "outputs": [],
      "stateMutability": "nonpayable",
      "type": "function"
    },
    {
      "inputs": [
        {
          "internalType": "address",
          "name": "owner",
          "type": "address"
        }
      ],
      "name": "balanceOf",
      "outputs": [
        {
          "internalType": "uint256",
          "name": "",
          "type": "uint256"
        }
      ],
      "stateMutability": "view",
      "type": "function"
    },
    {
      "inputs": [
        {
          "internalType": "address[]",
          "name": "_to",
          "type": "address[]"
        }
      ],
      "name": "bulkAirdropERC721",
      "outputs": [],
      "stateMutability": "payable",
      "type": "function"
    },
    {
      "inputs": [],
      "name": "campaignDescription",
      "outputs": [
        {
          "internalType": "string",
          "name": "",
          "type": "string"
        }
      ],
      "stateMutability": "view",
      "type": "function"
    },
    {
      "inputs": [],
      "name": "campaignEndDatetime",
      "outputs": [
        {
          "internalType": "uint256",
          "name": "",
          "type": "uint256"
        }
      ],
      "stateMutability": "view",
      "type": "function"
    },
    {
      "inputs": [],
      "name": "campaignName",
      "outputs": [
        {
          "internalType": "string",
          "name": "",
          "type": "string"
        }
      ],
      "stateMutability": "view",
      "type": "function"
    },
    {
      "inputs": [
        {
          "internalType": "uint256",
          "name": "_tokenId",
          "type": "uint256"
        },
        {
          "internalType": "address",
          "name": "_claimer",
          "type": "address"
        }
      ],
      "name": "claimAirdrop",
      "outputs": [],
      "stateMutability": "nonpayable",
      "type": "function"
    },
    {
      "inputs": [],
      "name": "claimedAirdropCounter",
      "outputs": [
        {
          "internalType": "uint256",
          "name": "",
          "type": "uint256"
        }
      ],
      "stateMutability": "view",
      "type": "function"
    },
    {
      "inputs": [
        {
          "internalType": "address",
          "name": "_address",
          "type": "address"
        }
      ],
      "name": "closeCampaign",
      "outputs": [],
      "stateMutability": "nonpayable",
      "type": "function"
    },
    {
      "inputs": [
        {
          "internalType": "uint256",
          "name": "tokenId",
          "type": "uint256"
        }
      ],
      "name": "getApproved",
      "outputs": [
        {
          "internalType": "address",
          "name": "",
          "type": "address"
        }
      ],
      "stateMutability": "view",
      "type": "function"
    },
    {
      "inputs": [
        {
          "internalType": "address",
          "name": "_address",
          "type": "address"
        }
      ],
      "name": "getTokenIdByAddress",
      "outputs": [
        {
          "internalType": "uint256",
          "name": "tokenId",
          "type": "uint256"
        }
      ],
      "stateMutability": "view",
      "type": "function"
    },
    {
      "inputs": [
        {
          "internalType": "address",
          "name": "owner",
          "type": "address"
        },
        {
          "internalType": "address",
          "name": "operator",
          "type": "address"
        }
      ],
      "name": "isApprovedForAll",
      "outputs": [
        {
          "internalType": "bool",
          "name": "",
          "type": "bool"
        }
      ],
      "stateMutability": "view",
      "type": "function"
    },
    {
      "inputs": [],
      "name": "isCampaignActive",
      "outputs": [
        {
          "internalType": "bool",
          "name": "",
          "type": "bool"
        }
      ],
      "stateMutability": "view",
      "type": "function"
    },
    {
      "inputs": [],
      "name": "name",
      "outputs": [
        {
          "internalType": "string",
          "name": "",
          "type": "string"
        }
      ],
      "stateMutability": "view",
      "type": "function"
    },
    {
      "inputs": [
        {
          "internalType": "uint256",
          "name": "tokenId",
          "type": "uint256"
        }
      ],
      "name": "ownerOf",
      "outputs": [
        {
          "internalType": "address",
          "name": "",
          "type": "address"
        }
      ],
      "stateMutability": "view",
      "type": "function"
    },
    {
      "inputs": [],
      "name": "percentFeeDivisor",
      "outputs": [
        {
          "internalType": "uint256",
          "name": "",
          "type": "uint256"
        }
      ],
      "stateMutability": "view",
      "type": "function"
    },
    {
      "inputs": [
        {
          "internalType": "address",
          "name": "from",
          "type": "address"
        },
        {
          "internalType": "address",
          "name": "to",
          "type": "address"
        },
        {
          "internalType": "uint256",
          "name": "tokenId",
          "type": "uint256"
        }
      ],
      "name": "safeTransferFrom",
      "outputs": [],
      "stateMutability": "nonpayable",
      "type": "function"
    },
    {
      "inputs": [
        {
          "internalType": "address",
          "name": "from",
          "type": "address"
        },
        {
          "internalType": "address",
          "name": "to",
          "type": "address"
        },
        {
          "internalType": "uint256",
          "name": "tokenId",
          "type": "uint256"
        },
        {
          "internalType": "bytes",
          "name": "data",
          "type": "bytes"
        }
      ],
      "name": "safeTransferFrom",
      "outputs": [],
      "stateMutability": "nonpayable",
      "type": "function"
    },
    {
      "inputs": [
        {
          "internalType": "address",
          "name": "operator",
          "type": "address"
        },
        {
          "internalType": "bool",
          "name": "approved",
          "type": "bool"
        }
      ],
      "name": "setApprovalForAll",
      "outputs": [],
      "stateMutability": "nonpayable",
      "type": "function"
    },
    {
      "inputs": [
        {
          "internalType": "uint256",
          "name": "_campaignEndDatetime",
          "type": "uint256"
        }
      ],
      "name": "setCampaignEndDate",
      "outputs": [],
      "stateMutability": "nonpayable",
      "type": "function"
    },
    {
      "inputs": [
        {
          "internalType": "bytes4",
          "name": "interfaceId",
          "type": "bytes4"
        }
      ],
      "name": "supportsInterface",
      "outputs": [
        {
          "internalType": "bool",
          "name": "",
          "type": "bool"
        }
      ],
      "stateMutability": "view",
      "type": "function"
    },
    {
      "inputs": [],
      "name": "symbol",
      "outputs": [
        {
          "internalType": "string",
          "name": "",
          "type": "string"
        }
      ],
      "stateMutability": "view",
      "type": "function"
    },
    {
      "inputs": [],
      "name": "tokenIdCounter",
      "outputs": [
        {
          "internalType": "uint256",
          "name": "",
          "type": "uint256"
        }
      ],
      "stateMutability": "view",
      "type": "function"
    },
    {
      "inputs": [
        {
          "internalType": "uint256",
          "name": "tokenId",
          "type": "uint256"
        }
      ],
      "name": "tokenURI",
      "outputs": [
        {
          "internalType": "string",
          "name": "",
          "type": "string"
        }
      ],
      "stateMutability": "view",
      "type": "function"
    },
    {
      "inputs": [
        {
          "internalType": "address",
          "name": "from",
          "type": "address"
        },
        {
          "internalType": "address",
          "name": "to",
          "type": "address"
        },
        {
          "internalType": "uint256",
          "name": "tokenId",
          "type": "uint256"
        }
      ],
      "name": "transferFrom",
      "outputs": [],
      "stateMutability": "nonpayable",
      "type": "function"
    }
  ],
  "bytecode": "0x60806040523480156200001157600080fd5b5060405162002a1a38038062002a1a8339810160408190526200003491620002e4565b6001600081905589518a918a91620000529190602085019062000154565b5080516200006890600290602084019062000154565b50505081600014806200007b5750428210155b620000cc5760405162461bcd60e51b815260206004820152601e60248201527f43616d706169676e2063616e6e6f7420656e64206265666f7265206e6f770000604482015260640160405180910390fd5b8651620000e19060099060208a019062000154565b508551620000f790600a90602089019062000154565b50600885905583516200011290600b90602087019062000154565b50601280546001600160a01b0319166001600160a01b039490941693909317909255600c55600d555050600e805460ff19166001179055506200043292505050565b8280546200016290620003f5565b90600052602060002090601f016020900481019282620001865760008555620001d1565b82601f10620001a157805160ff1916838001178555620001d1565b82800160010185558215620001d1579182015b82811115620001d1578251825591602001919060010190620001b4565b50620001df929150620001e3565b5090565b5b80821115620001df5760008155600101620001e4565b634e487b7160e01b600052604160045260246000fd5b600082601f8301126200022257600080fd5b81516001600160401b03808211156200023f576200023f620001fa565b604051601f8301601f19908116603f011681019082821181831017156200026a576200026a620001fa565b816040528381526020925086838588010111156200028757600080fd5b600091505b83821015620002ab57858201830151818301840152908201906200028c565b83821115620002bd5760008385830101525b9695505050505050565b80516001600160a01b0381168114620002df57600080fd5b919050565b60008060008060008060008060006101208a8c0312156200030457600080fd5b89516001600160401b03808211156200031c57600080fd5b6200032a8d838e0162000210565b9a5060208c01519150808211156200034157600080fd5b6200034f8d838e0162000210565b995060408c01519150808211156200036657600080fd5b620003748d838e0162000210565b985060608c01519150808211156200038b57600080fd5b620003998d838e0162000210565b975060808c0151965060a08c0151915080821115620003b757600080fd5b50620003c68c828d0162000210565b945050620003d760c08b01620002c7565b925060e08a015191506101008a015190509295985092959850929598565b600181811c908216806200040a57607f821691505b602082108114156200042c57634e487b7160e01b600052602260045260246000fd5b50919050565b6125d880620004426000396000f3fe6080604052600436106101c25760003560e01c806370a08231116100f7578063a22cb46511610095578063d921fe9211610064578063d921fe92146104e8578063e2d732df146104fe578063e985e9c51461051e578063f387bcac1461056757600080fd5b8063a22cb46514610472578063a7c7d2a014610492578063b88d4fde146104a8578063c87b56dd146104c857600080fd5b80638cbab7e4116100d15780638cbab7e4146103f157806393575f971461042757806395d89b411461044757806398bdf6f51461045c57600080fd5b806370a08231146103a657806373fbc5b3146103c657806381701f37146103dc57600080fd5b806323b872dd116101645780635d8b4d681161013e5780635d8b4d68146103265780636352211e146103395780636511bf2e1461035957806367f5f32d1461038657600080fd5b806323b872dd146102c657806342842e0e146102e6578063460d42bb1461030657600080fd5b80630724fda9116101a05780630724fda914610242578063081812fc14610257578063095ea7b31461028f578063110842cb146102b157600080fd5b806301ffc9a7146101c7578063059479af146101fc57806306fdde0314610220575b600080fd5b3480156101d357600080fd5b506101e76101e23660046120d5565b610581565b60405190151581526020015b60405180910390f35b34801561020857600080fd5b50610212600c5481565b6040519081526020016101f3565b34801561022c57600080fd5b5061023561061e565b6040516101f3919061214a565b34801561024e57600080fd5b506102356106b0565b34801561026357600080fd5b5061027761027236600461215d565b61073e565b6040516001600160a01b0390911681526020016101f3565b34801561029b57600080fd5b506102af6102aa366004612192565b610765565b005b3480156102bd57600080fd5b50610235610880565b3480156102d257600080fd5b506102af6102e13660046121bc565b61088d565b3480156102f257600080fd5b506102af6103013660046121bc565b610914565b34801561031257600080fd5b506102af61032136600461215d565b61092f565b6102af6103343660046121f8565b610a6c565b34801561034557600080fd5b5061027761035436600461215d565b610d31565b34801561036557600080fd5b5061021261037436600461226d565b60116020526000908152604090205481565b34801561039257600080fd5b506102af6103a136600461226d565b610d96565b3480156103b257600080fd5b506102126103c136600461226d565b610f24565b3480156103d257600080fd5b50610212600d5481565b3480156103e857600080fd5b50610235610fbe565b3480156103fd57600080fd5b5061021261040c36600461226d565b6001600160a01b031660009081526011602052604090205490565b34801561043357600080fd5b506102af610442366004612288565b610fcb565b34801561045357600080fd5b506102356112aa565b34801561046857600080fd5b50610212600f5481565b34801561047e57600080fd5b506102af61048d3660046122b4565b6112b9565b34801561049e57600080fd5b5061021260085481565b3480156104b457600080fd5b506102af6104c3366004612306565b6112c8565b3480156104d457600080fd5b506102356104e336600461215d565b611356565b3480156104f457600080fd5b5061021260105481565b34801561050a57600080fd5b50601254610277906001600160a01b031681565b34801561052a57600080fd5b506101e76105393660046123e2565b6001600160a01b03918216600090815260066020908152604080832093909416825291909152205460ff1690565b34801561057357600080fd5b50600e546101e79060ff1681565b60006001600160e01b031982167f80ac58cd0000000000000000000000000000000000000000000000000000000014806105e457506001600160e01b031982167f5b5e139f00000000000000000000000000000000000000000000000000000000145b8061061857507f01ffc9a7000000000000000000000000000000000000000000000000000000006001600160e01b03198316145b92915050565b60606001805461062d9061240c565b80601f01602080910402602001604051908101604052809291908181526020018280546106599061240c565b80156106a65780601f1061067b576101008083540402835291602001916106a6565b820191906000526020600020905b81548152906001019060200180831161068957829003601f168201915b5050505050905090565b600a80546106bd9061240c565b80601f01602080910402602001604051908101604052809291908181526020018280546106e99061240c565b80156107365780601f1061070b57610100808354040283529160200191610736565b820191906000526020600020905b81548152906001019060200180831161071957829003601f168201915b505050505081565b600061074982611467565b506000908152600560205260409020546001600160a01b031690565b600061077082610d31565b9050806001600160a01b0316836001600160a01b031614156107e35760405162461bcd60e51b815260206004820152602160248201527f4552433732313a20617070726f76616c20746f2063757272656e74206f776e656044820152603960f91b60648201526084015b60405180910390fd5b336001600160a01b03821614806107ff57506107ff8133610539565b6108715760405162461bcd60e51b815260206004820152603e60248201527f4552433732313a20617070726f76652063616c6c6572206973206e6f7420746f60448201527f6b656e206f776e6572206e6f7220617070726f76656420666f7220616c6c000060648201526084016107da565b61087b83836114ce565b505050565b600980546106bd9061240c565b6108973382611549565b6109095760405162461bcd60e51b815260206004820152602e60248201527f4552433732313a2063616c6c6572206973206e6f7420746f6b656e206f776e6560448201527f72206e6f7220617070726f76656400000000000000000000000000000000000060648201526084016107da565b61087b8383836115c7565b61087b838383604051806020016040528060008152506112c8565b6012546001600160a01b031633146109895760405162461bcd60e51b815260206004820152601f60248201527f43616c6c6572206973206e6f742041697276657274697365466163746f72790060448201526064016107da565b80158061099557504281115b6109e15760405162461bcd60e51b815260206004820152601e60248201527f43616d706169676e2063616e6e6f7420656e64206265666f7265206e6f77000060448201526064016107da565b600e5460ff16610a335760405162461bcd60e51b815260206004820181905260248201527f43616d706169676e20656e6465642062792063616d706169676e206f776e657260448201526064016107da565b600c546040519081527fbbb265210fe50a6605807be38b899727f1588d8e0559ebb64f228ddeb1d9e9989060200160405180910390a150565b60026000541415610abf5760405162461bcd60e51b815260206004820152601f60248201527f5265656e7472616e637947756172643a207265656e7472616e742063616c6c0060448201526064016107da565b60026000556012546001600160a01b03163314610b1e5760405162461bcd60e51b815260206004820152601f60248201527f43616c6c6572206973206e6f742041697276657274697365466163746f72790060448201526064016107da565b80610b6b5760405162461bcd60e51b815260206004820152601560248201527f4e6f20616464726573736573207265636569766564000000000000000000000060448201526064016107da565b600854610b7990829061245d565b341015610bc85760405162461bcd60e51b815260206004820152601060248201527f4e6f7420656e6f7567682066756e64730000000000000000000000000000000060448201526064016107da565b60005b81811015610d1657610c10838383818110610be857610be861247c565b9050602002016020810190610bfd919061226d565b82600f54610c0b9190612492565b6117ac565b610cb181600f54610c219190612492565b600b8054610c2e9061240c565b80601f0160208091040260200160405190810160405280929190818152602001828054610c5a9061240c565b8015610ca75780601f10610c7c57610100808354040283529160200191610ca7565b820191906000526020600020905b815481529060010190602001808311610c8a57829003601f168201915b50505050506117c6565b80600f54610cbf9190612492565b60116000858585818110610cd557610cd561247c565b9050602002016020810190610cea919061226d565b6001600160a01b0316815260208101919091526040016000205580610d0e816124aa565b915050610bcb565b50600f54610d25908290612492565b600f5550506001600055565b6000818152600360205260408120546001600160a01b0316806106185760405162461bcd60e51b815260206004820152601860248201527f4552433732313a20696e76616c696420746f6b656e204944000000000000000060448201526064016107da565b6012546001600160a01b03163314610df05760405162461bcd60e51b815260206004820152601f60248201527f43616c6c6572206973206e6f742041697276657274697365466163746f72790060448201526064016107da565b600e5460ff16610e425760405162461bcd60e51b815260206004820152601760248201527f43616d706169676e20616c726561647920636c6f73656400000000000000000060448201526064016107da565b600e805460ff191690556040516000906001600160a01b0383169047908381818185875af1925050503d8060008114610e97576040519150601f19603f3d011682016040523d82523d6000602084013e610e9c565b606091505b5050905080610eed5760405162461bcd60e51b815260206004820152601d60248201527f4661696c656420746f2073656e642061697264726f7020726566756e6400000060448201526064016107da565b6040514281527f5e6eb33a418de5dbbc17f989f7ae362cdfbb1748c5d603137c767027a354edbc9060200160405180910390a15050565b60006001600160a01b038216610fa25760405162461bcd60e51b815260206004820152602960248201527f4552433732313a2061646472657373207a65726f206973206e6f74206120766160448201527f6c6964206f776e6572000000000000000000000000000000000000000000000060648201526084016107da565b506001600160a01b031660009081526004602052604090205490565b600b80546106bd9061240c565b6002600054141561101e5760405162461bcd60e51b815260206004820152601f60248201527f5265656e7472616e637947756172643a207265656e7472616e742063616c6c0060448201526064016107da565b60026000556012546001600160a01b0316331461107d5760405162461bcd60e51b815260206004820152601f60248201527f43616c6c6572206973206e6f742041697276657274697365466163746f72790060448201526064016107da565b61108682610d31565b6001600160a01b0316816001600160a01b0316146110e65760405162461bcd60e51b815260206004820152600f60248201527f4e6f7420746f6b656e206f776e6572000000000000000000000000000000000060448201526064016107da565b600e5460ff166111425760405162461bcd60e51b815260206004820152602160248201527f43616d706169676e20636c6f7365642062792063616d706169676e206f776e656044820152603960f91b60648201526084016107da565b600c541580611153575042600c5410155b61119f5760405162461bcd60e51b815260206004820152601560248201527f43616d706169676e206861732066696e6973686564000000000000000000000060448201526064016107da565b601080549060006111af836124aa565b91905055506111bd8261186f565b6008546040516000916001600160a01b038416918381818185875af1925050503d8060008114611209576040519150601f19603f3d011682016040523d82523d6000602084013e61120e565b606091505b505090508061125f5760405162461bcd60e51b815260206004820152601560248201527f4661696c656420746f2073656e6420726566756e64000000000000000000000060448201526064016107da565b604080516001600160a01b03841681524260208201527f650e45f04ef8a0c267b2f78d983913f69ae3a353b2b32de5429307522be0ab55910160405180910390a15050600160005550565b60606002805461062d9061240c565b6112c43383836118af565b5050565b6112d23383611549565b6113445760405162461bcd60e51b815260206004820152602e60248201527f4552433732313a2063616c6c6572206973206e6f7420746f6b656e206f776e6560448201527f72206e6f7220617070726f76656400000000000000000000000000000000000060648201526084016107da565b6113508484848461197e565b50505050565b606061136182611467565b6000828152600760205260408120805461137a9061240c565b80601f01602080910402602001604051908101604052809291908181526020018280546113a69061240c565b80156113f35780601f106113c8576101008083540402835291602001916113f3565b820191906000526020600020905b8154815290600101906020018083116113d657829003601f168201915b50505050509050600061141160408051602081019091526000815290565b9050805160001415611424575092915050565b81511561145657808260405160200161143e9291906124c5565b60405160208183030381529060405292505050919050565b61145f846119fc565b949350505050565b6000818152600360205260409020546001600160a01b03166114cb5760405162461bcd60e51b815260206004820152601860248201527f4552433732313a20696e76616c696420746f6b656e204944000000000000000060448201526064016107da565b50565b6000818152600560205260409020805473ffffffffffffffffffffffffffffffffffffffff19166001600160a01b038416908117909155819061151082610d31565b6001600160a01b03167f8c5be1e5ebec7d5bd14f71427d1e84f3dd0314c0f7b2291e5b200ac8c7c3b92560405160405180910390a45050565b60008061155583610d31565b9050806001600160a01b0316846001600160a01b0316148061159c57506001600160a01b0380821660009081526006602090815260408083209388168352929052205460ff165b8061145f5750836001600160a01b03166115b58461073e565b6001600160a01b031614949350505050565b826001600160a01b03166115da82610d31565b6001600160a01b0316146116565760405162461bcd60e51b815260206004820152602560248201527f4552433732313a207472616e736665722066726f6d20696e636f72726563742060448201527f6f776e657200000000000000000000000000000000000000000000000000000060648201526084016107da565b6001600160a01b0382166116d15760405162461bcd60e51b8152602060048201526024808201527f4552433732313a207472616e7366657220746f20746865207a65726f2061646460448201527f726573730000000000000000000000000000000000000000000000000000000060648201526084016107da565b6116dc838383611a70565b6116e76000826114ce565b6001600160a01b03831660009081526004602052604081208054600192906117109084906124f4565b90915550506001600160a01b038216600090815260046020526040812080546001929061173e908490612492565b9091555050600081815260036020526040808220805473ffffffffffffffffffffffffffffffffffffffff19166001600160a01b0386811691821790925591518493918716917fddf252ad1be2c89b69c2b068fc378daa952ba7f163c4a11628f55a4df523b3ef91a4505050565b6112c4828260405180602001604052806000815250611ad9565b6000828152600360205260409020546001600160a01b03166118505760405162461bcd60e51b815260206004820152602e60248201527f45524337323155524953746f726167653a2055524920736574206f66206e6f6e60448201527f6578697374656e7420746f6b656e00000000000000000000000000000000000060648201526084016107da565b6000828152600760209081526040909120825161087b92840190611ff0565b61187881611b57565b600081815260076020526040902080546118919061240c565b1590506114cb5760008181526007602052604081206114cb91612074565b816001600160a01b0316836001600160a01b031614156119115760405162461bcd60e51b815260206004820152601960248201527f4552433732313a20617070726f766520746f2063616c6c65720000000000000060448201526064016107da565b6001600160a01b03838116600081815260066020908152604080832094871680845294825291829020805460ff191686151590811790915591519182527f17307eab39ab6107e8899845ad3d59bd9653f200f220920489ca2b5937696c31910160405180910390a3505050565b6119898484846115c7565b61199584848484611c0b565b6113505760405162461bcd60e51b815260206004820152603260248201527f4552433732313a207472616e7366657220746f206e6f6e20455243373231526560448201527131b2b4bb32b91034b6b83632b6b2b73a32b960711b60648201526084016107da565b6060611a0782611467565b6000611a1e60408051602081019091526000815290565b90506000815111611a3e5760405180602001604052806000815250611a69565b80611a4884611d63565b604051602001611a599291906124c5565b6040516020818303038152906040525b9392505050565b6001600160a01b0383161580611a8d57506001600160a01b038216155b61087b5760405162461bcd60e51b815260206004820152601760248201527f43616e6e6f74207472616e736665722061697264726f7000000000000000000060448201526064016107da565b611ae38383611e95565b611af06000848484611c0b565b61087b5760405162461bcd60e51b815260206004820152603260248201527f4552433732313a207472616e7366657220746f206e6f6e20455243373231526560448201527131b2b4bb32b91034b6b83632b6b2b73a32b960711b60648201526084016107da565b6000611b6282610d31565b9050611b7081600084611a70565b611b7b6000836114ce565b6001600160a01b0381166000908152600460205260408120805460019290611ba49084906124f4565b9091555050600082815260036020526040808220805473ffffffffffffffffffffffffffffffffffffffff19169055518391906001600160a01b038416907fddf252ad1be2c89b69c2b068fc378daa952ba7f163c4a11628f55a4df523b3ef908390a45050565b60006001600160a01b0384163b15611d5857604051630a85bd0160e11b81526001600160a01b0385169063150b7a0290611c4f90339089908890889060040161250b565b602060405180830381600087803b158015611c6957600080fd5b505af1925050508015611c99575060408051601f3d908101601f19168201909252611c9691810190612547565b60015b611d3e573d808015611cc7576040519150601f19603f3d011682016040523d82523d6000602084013e611ccc565b606091505b508051611d365760405162461bcd60e51b815260206004820152603260248201527f4552433732313a207472616e7366657220746f206e6f6e20455243373231526560448201527131b2b4bb32b91034b6b83632b6b2b73a32b960711b60648201526084016107da565b805181602001fd5b6001600160e01b031916630a85bd0160e11b14905061145f565b506001949350505050565b606081611da357505060408051808201909152600181527f3000000000000000000000000000000000000000000000000000000000000000602082015290565b8160005b8115611dcd5780611db7816124aa565b9150611dc69050600a8361257a565b9150611da7565b60008167ffffffffffffffff811115611de857611de86122f0565b6040519080825280601f01601f191660200182016040528015611e12576020820181803683370190505b5090505b841561145f57611e276001836124f4565b9150611e34600a8661258e565b611e3f906030612492565b60f81b818381518110611e5457611e5461247c565b60200101907effffffffffffffffffffffffffffffffffffffffffffffffffffffffffffff1916908160001a905350611e8e600a8661257a565b9450611e16565b6001600160a01b038216611eeb5760405162461bcd60e51b815260206004820181905260248201527f4552433732313a206d696e7420746f20746865207a65726f206164647265737360448201526064016107da565b6000818152600360205260409020546001600160a01b031615611f505760405162461bcd60e51b815260206004820152601c60248201527f4552433732313a20746f6b656e20616c7265616479206d696e7465640000000060448201526064016107da565b611f5c60008383611a70565b6001600160a01b0382166000908152600460205260408120805460019290611f85908490612492565b9091555050600081815260036020526040808220805473ffffffffffffffffffffffffffffffffffffffff19166001600160a01b03861690811790915590518392907fddf252ad1be2c89b69c2b068fc378daa952ba7f163c4a11628f55a4df523b3ef908290a45050565b828054611ffc9061240c565b90600052602060002090601f01602090048101928261201e5760008555612064565b82601f1061203757805160ff1916838001178555612064565b82800160010185558215612064579182015b82811115612064578251825591602001919060010190612049565b506120709291506120aa565b5090565b5080546120809061240c565b6000825580601f10612090575050565b601f0160209004906000526020600020908101906114cb91905b5b8082111561207057600081556001016120ab565b6001600160e01b0319811681146114cb57600080fd5b6000602082840312156120e757600080fd5b8135611a69816120bf565b60005b8381101561210d5781810151838201526020016120f5565b838111156113505750506000910152565b600081518084526121368160208601602086016120f2565b601f01601f19169290920160200192915050565b602081526000611a69602083018461211e565b60006020828403121561216f57600080fd5b5035919050565b80356001600160a01b038116811461218d57600080fd5b919050565b600080604083850312156121a557600080fd5b6121ae83612176565b946020939093013593505050565b6000806000606084860312156121d157600080fd5b6121da84612176565b92506121e860208501612176565b9150604084013590509250925092565b6000806020838503121561220b57600080fd5b823567ffffffffffffffff8082111561222357600080fd5b818501915085601f83011261223757600080fd5b81358181111561224657600080fd5b8660208260051b850101111561225b57600080fd5b60209290920196919550909350505050565b60006020828403121561227f57600080fd5b611a6982612176565b6000806040838503121561229b57600080fd5b823591506122ab60208401612176565b90509250929050565b600080604083850312156122c757600080fd5b6122d083612176565b9150602083013580151581146122e557600080fd5b809150509250929050565b634e487b7160e01b600052604160045260246000fd5b6000806000806080858703121561231c57600080fd5b61232585612176565b935061233360208601612176565b925060408501359150606085013567ffffffffffffffff8082111561235757600080fd5b818701915087601f83011261236b57600080fd5b81358181111561237d5761237d6122f0565b604051601f8201601f19908116603f011681019083821181831017156123a5576123a56122f0565b816040528281528a60208487010111156123be57600080fd5b82602086016020830137600060208483010152809550505050505092959194509250565b600080604083850312156123f557600080fd5b6123fe83612176565b91506122ab60208401612176565b600181811c9082168061242057607f821691505b6020821081141561244157634e487b7160e01b600052602260045260246000fd5b50919050565b634e487b7160e01b600052601160045260246000fd5b600081600019048311821515161561247757612477612447565b500290565b634e487b7160e01b600052603260045260246000fd5b600082198211156124a5576124a5612447565b500190565b60006000198214156124be576124be612447565b5060010190565b600083516124d78184602088016120f2565b8351908301906124eb8183602088016120f2565b01949350505050565b60008282101561250657612506612447565b500390565b60006001600160a01b0380871683528086166020840152508360408301526080606083015261253d608083018461211e565b9695505050505050565b60006020828403121561255957600080fd5b8151611a69816120bf565b634e487b7160e01b600052601260045260246000fd5b60008261258957612589612564565b500490565b60008261259d5761259d612564565b50069056fea2646970667358221220235628e7dac33d7b126056f33983b7f3a42bd548444f8adac8849498d3492b1064736f6c63430008080033",
  "linkReferences": {},
  "deployedLinkReferences": {}
}