{
  "_format": "hh-sol-artifact-1",
  "contractName": "Airvertise",
  "sourceName": "contracts/Airvertise.sol",
  "abi": [
    {
      "inputs": [
        {
          "internalType": "address",
          "name": "_signer",
          "type": "address"
        }
      ],
      "stateMutability": "nonpayable",
      "type": "constructor"
    },
    {
      "anonymous": false,
      "inputs": [
        {
          "indexed": false,
          "internalType": "address",
          "name": "user",
          "type": "address"
        },
        {
          "indexed": false,
          "internalType": "address",
          "name": "campaignAddress",
          "type": "address"
        },
        {
          "indexed": false,
          "internalType": "uint256",
          "name": "tokenId",
          "type": "uint256"
        }
      ],
      "name": "AirdropClaimed",
      "type": "event"
    },
    {
      "anonymous": false,
      "inputs": [
        {
          "indexed": false,
          "internalType": "address",
          "name": "campaignAddress",
          "type": "address"
        },
        {
          "indexed": false,
          "internalType": "uint256",
          "name": "campaignsCount",
          "type": "uint256"
        }
      ],
      "name": "CampaignCreated",
      "type": "event"
    },
    {
      "anonymous": false,
      "inputs": [
        {
          "indexed": true,
          "internalType": "address",
          "name": "previousOwner",
          "type": "address"
        },
        {
          "indexed": true,
          "internalType": "address",
          "name": "newOwner",
          "type": "address"
        }
      ],
      "name": "OwnershipTransferred",
      "type": "event"
    },
    {
      "inputs": [
        {
          "internalType": "address",
          "name": "",
          "type": "address"
        }
      ],
      "name": "advertisementExists",
      "outputs": [
        {
          "internalType": "bool",
          "name": "",
          "type": "bool"
        }
      ],
      "stateMutability": "view",
      "type": "function"
    },
    {
      "inputs": [
        {
          "internalType": "uint256",
          "name": "",
          "type": "uint256"
        }
      ],
      "name": "advertisements",
      "outputs": [
        {
          "internalType": "address",
          "name": "",
          "type": "address"
        }
      ],
      "stateMutability": "view",
      "type": "function"
    },
    {
      "inputs": [
        {
          "internalType": "address",
          "name": "",
          "type": "address"
        },
        {
          "internalType": "uint256",
          "name": "",
          "type": "uint256"
        }
      ],
      "name": "campaignOwnerToCampaignAddresses",
      "outputs": [
        {
          "internalType": "address",
          "name": "",
          "type": "address"
        }
      ],
      "stateMutability": "view",
      "type": "function"
    },
    {
      "inputs": [
        {
          "internalType": "uint256",
          "name": "_campaignAddressIndex",
          "type": "uint256"
        },
        {
          "internalType": "uint256",
          "name": "_tokenId",
          "type": "uint256"
        }
      ],
      "name": "claimAirdrop",
      "outputs": [],
      "stateMutability": "nonpayable",
      "type": "function"
    },
    {
      "inputs": [
        {
          "internalType": "string",
          "name": "_campaignTitle",
          "type": "string"
        },
        {
          "internalType": "string",
          "name": "_campaignName",
          "type": "string"
        },
        {
          "internalType": "uint256",
          "name": "_value",
          "type": "uint256"
        },
        {
          "internalType": "string",
          "name": "_advertisementUri",
          "type": "string"
        },
        {
          "internalType": "address[]",
          "name": "_to",
          "type": "address[]"
        }
      ],
      "name": "createCampaign",
      "outputs": [
        {
          "internalType": "address",
          "name": "newAdcampaignAdress",
          "type": "address"
        }
      ],
      "stateMutability": "payable",
      "type": "function"
    },
    {
      "inputs": [
        {
          "internalType": "address",
          "name": "_address",
          "type": "address"
        }
      ],
      "name": "getOwnerCampaignAddresses",
      "outputs": [
        {
          "internalType": "address[]",
          "name": "campaigns",
          "type": "address[]"
        }
      ],
      "stateMutability": "view",
      "type": "function"
    },
    {
      "inputs": [
        {
          "internalType": "address",
          "name": "_address",
          "type": "address"
        }
      ],
      "name": "getUserCampaignAddresses",
      "outputs": [
        {
          "components": [
            {
              "internalType": "address",
              "name": "campaignAddress",
              "type": "address"
            },
            {
              "internalType": "bool",
              "name": "pendingCollection",
              "type": "bool"
            }
          ],
          "internalType": "struct AdCampaign[]",
          "name": "campaigns",
          "type": "tuple[]"
        }
      ],
      "stateMutability": "view",
      "type": "function"
    },
    {
      "inputs": [],
      "name": "owner",
      "outputs": [
        {
          "internalType": "address",
          "name": "",
          "type": "address"
        }
      ],
      "stateMutability": "view",
      "type": "function"
    },
    {
      "inputs": [
        {
          "internalType": "uint256",
          "name": "_salt",
          "type": "uint256"
        }
      ],
      "name": "predictAddress",
      "outputs": [
        {
          "internalType": "address",
          "name": "",
          "type": "address"
        }
      ],
      "stateMutability": "view",
      "type": "function"
    },
    {
      "inputs": [],
      "name": "renounceOwnership",
      "outputs": [],
      "stateMutability": "nonpayable",
      "type": "function"
    },
    {
      "inputs": [
        {
          "internalType": "address",
          "name": "_signer",
          "type": "address"
        }
      ],
      "name": "setSigner",
      "outputs": [],
      "stateMutability": "nonpayable",
      "type": "function"
    },
    {
      "inputs": [
        {
          "internalType": "address",
          "name": "newOwner",
          "type": "address"
        }
      ],
      "name": "transferOwnership",
      "outputs": [],
      "stateMutability": "nonpayable",
      "type": "function"
    },
    {
      "inputs": [
        {
          "internalType": "address",
          "name": "",
          "type": "address"
        },
        {
          "internalType": "uint256",
          "name": "",
          "type": "uint256"
        }
      ],
      "name": "userToCampaignAddresses",
      "outputs": [
        {
          "internalType": "address",
          "name": "campaignAddress",
          "type": "address"
        },
        {
          "internalType": "bool",
          "name": "pendingCollection",
          "type": "bool"
        }
      ],
      "stateMutability": "view",
      "type": "function"
    }
  ],
  "bytecode": "0x60806040523480156200001157600080fd5b50604051620061d7380380620061d78339818101604052810190620000379190620001d5565b620000576200004b6200009f60201b60201c565b620000a760201b60201c565b80600560006101000a81548173ffffffffffffffffffffffffffffffffffffffff021916908373ffffffffffffffffffffffffffffffffffffffff1602179055505062000207565b600033905090565b60008060009054906101000a900473ffffffffffffffffffffffffffffffffffffffff169050816000806101000a81548173ffffffffffffffffffffffffffffffffffffffff021916908373ffffffffffffffffffffffffffffffffffffffff1602179055508173ffffffffffffffffffffffffffffffffffffffff168173ffffffffffffffffffffffffffffffffffffffff167f8be0079c531659141344cd1fd0a4f28419497f9722a3daafe3b4186f6b6457e060405160405180910390a35050565b600080fd5b600073ffffffffffffffffffffffffffffffffffffffff82169050919050565b60006200019d8262000170565b9050919050565b620001af8162000190565b8114620001bb57600080fd5b50565b600081519050620001cf81620001a4565b92915050565b600060208284031215620001ee57620001ed6200016b565b5b6000620001fe84828501620001be565b91505092915050565b615fc080620002176000396000f3fe608060405260043610620000d45760003560e01c80637f9738ea116200008b578063a6c8fe3a1162000061578063a6c8fe3a14620002c6578063bcea610e146200030a578063bf1897dc146200034e578063f2fde38b146200039257620000d4565b80637f9738ea146200022457806389f3ba0c14620002525780638da5cb5b146200029657620000d4565b806330c0ca9014620000d957806334247779146200010f5780635feab05614620001535780636c19e7831462000197578063715018a614620001c557806378ca7d2014620001df575b600080fd5b620000f76004803603810190620000f19190620013d3565b620003c0565b6040516200010691906200151f565b60405180910390f35b3480156200011c57600080fd5b506200013b60048036038101906200013591906200156d565b6200092c565b6040516200014a91906200151f565b60405180910390f35b3480156200016057600080fd5b506200017f6004803603810190620001799190620015b4565b6200097b565b6040516200018e919062001603565b60405180910390f35b348015620001a457600080fd5b50620001c36004803603810190620001bd9190620015b4565b6200099b565b005b348015620001d257600080fd5b50620001dd620009e9565b005b348015620001ec57600080fd5b506200020b60048036038101906200020591906200156d565b62000a01565b6040516200021b92919062001620565b60405180910390f35b3480156200023157600080fd5b506200025060048036038101906200024a91906200164d565b62000a6c565b005b3480156200025f57600080fd5b506200027e6004803603810190620002789190620015b4565b62000cd0565b6040516200028d9190620017a6565b60405180910390f35b348015620002a357600080fd5b50620002ae62000ddd565b604051620002bd91906200151f565b60405180910390f35b348015620002d357600080fd5b50620002f26004803603810190620002ec9190620017ca565b62000e06565b6040516200030191906200151f565b60405180910390f35b3480156200031757600080fd5b50620003366004803603810190620003309190620017ca565b62000ec0565b6040516200034591906200151f565b60405180910390f35b3480156200035b57600080fd5b506200037a6004803603810190620003749190620015b4565b62000f00565b604051620003899190620018b9565b60405180910390f35b3480156200039f57600080fd5b50620003be6004803603810190620003b89190620015b4565b62000fcf565b005b60008087511162000408576040517f08c379a0000000000000000000000000000000000000000000000000000000008152600401620003ff906200193e565b60405180910390fd5b60008651116200044f576040517f08c379a00000000000000000000000000000000000000000000000000000000081526004016200044690620019b0565b60405180910390fd5b600084511162000496576040517f08c379a00000000000000000000000000000000000000000000000000000000081526004016200048d9062001a22565b60405180910390fd5b60008787878730604051602001620004b395949392919062001b8c565b6040516020818303038152906040528051906020012090506000620004db8260001c62000e06565b905060001515600160008373ffffffffffffffffffffffffffffffffffffffff1673ffffffffffffffffffffffffffffffffffffffff16815260200190815260200160002060009054906101000a900460ff1615151462000573576040517f08c379a00000000000000000000000000000000000000000000000000000000081526004016200056a9062001c46565b60405180910390fd5b6000828a8a8a8a306040516200058990620011ab565b6200059995949392919062001ce1565b8190604051809103906000f5905080158015620005ba573d6000803e3d6000fd5b50905080935060018060008673ffffffffffffffffffffffffffffffffffffffff1673ffffffffffffffffffffffffffffffffffffffff16815260200190815260200160002060006101000a81548160ff0219169083151502179055506002849080600181540180825580915050600190039060005260206000200160009091909190916101000a81548173ffffffffffffffffffffffffffffffffffffffff021916908373ffffffffffffffffffffffffffffffffffffffff1602179055507ffc5b9d1c2c1134048e1792e3ae27d4eee04f460d341711c7088000d2ca21862184600280549050604051620006b292919062001d68565b60405180910390a1600060405180604001604052808673ffffffffffffffffffffffffffffffffffffffff16815260200160011515815250905060005b878790508110156200080b576003600089898481811062000715576200071462001d95565b5b90506020020160208101906200072c9190620015b4565b73ffffffffffffffffffffffffffffffffffffffff1673ffffffffffffffffffffffffffffffffffffffff168152602001908152602001600020829080600181540180825580915050600190039060005260206000200160009091909190915060008201518160000160006101000a81548173ffffffffffffffffffffffffffffffffffffffff021916908373ffffffffffffffffffffffffffffffffffffffff16021790555060208201518160000160146101000a81548160ff02191690831515021790555050508080620008029062001df3565b915050620006ef565b50600460003373ffffffffffffffffffffffffffffffffffffffff1673ffffffffffffffffffffffffffffffffffffffff168152602001908152602001600020859080600181540180825580915050600190039060005260206000200160009091909190916101000a81548173ffffffffffffffffffffffffffffffffffffffff021916908373ffffffffffffffffffffffffffffffffffffffff1602179055508173ffffffffffffffffffffffffffffffffffffffff16635d8b4d683489896040518463ffffffff1660e01b8152600401620008ea92919062001eda565b6000604051808303818588803b1580156200090457600080fd5b505af115801562000919573d6000803e3d6000fd5b5050505050505050509695505050505050565b600460205281600052604060002081815481106200094957600080fd5b906000526020600020016000915091509054906101000a900473ffffffffffffffffffffffffffffffffffffffff1681565b60016020528060005260406000206000915054906101000a900460ff1681565b620009a56200105a565b80600560006101000a81548173ffffffffffffffffffffffffffffffffffffffff021916908373ffffffffffffffffffffffffffffffffffffffff16021790555050565b620009f36200105a565b620009ff6000620010df565b565b6003602052816000526040600020818154811062000a1e57600080fd5b90600052602060002001600091509150508060000160009054906101000a900473ffffffffffffffffffffffffffffffffffffffff16908060000160149054906101000a900460ff16905082565b600360003373ffffffffffffffffffffffffffffffffffffffff1673ffffffffffffffffffffffffffffffffffffffff168152602001908152602001600020828154811062000ac05762000abf62001d95565b5b9060005260206000200160000160149054906101000a900460ff1662000b1d576040517f08c379a000000000000000000000000000000000000000000000000000000000815260040162000b149062001f50565b60405180910390fd5b6000600360003373ffffffffffffffffffffffffffffffffffffffff1673ffffffffffffffffffffffffffffffffffffffff168152602001908152602001600020838154811062000b735762000b7262001d95565b5b9060005260206000200160000160146101000a81548160ff0219169083151502179055506000600360003373ffffffffffffffffffffffffffffffffffffffff1673ffffffffffffffffffffffffffffffffffffffff168152602001908152602001600020838154811062000bed5762000bec62001d95565b5b9060005260206000200160000160009054906101000a900473ffffffffffffffffffffffffffffffffffffffff1690508073ffffffffffffffffffffffffffffffffffffffff166393575f9783336040518363ffffffff1660e01b815260040162000c5a92919062001f72565b600060405180830381600087803b15801562000c7557600080fd5b505af115801562000c8a573d6000803e3d6000fd5b505050507fb0a0840c7bb9b6ecca130f40e5b8f2158da27eb5c5c9432c8f424a520c8b55d133828460405162000cc39392919062001f9f565b60405180910390a1505050565b6060600360008373ffffffffffffffffffffffffffffffffffffffff1673ffffffffffffffffffffffffffffffffffffffff168152602001908152602001600020805480602002602001604051908101604052809291908181526020016000905b8282101562000dd2578382906000526020600020016040518060400160405290816000820160009054906101000a900473ffffffffffffffffffffffffffffffffffffffff1673ffffffffffffffffffffffffffffffffffffffff1673ffffffffffffffffffffffffffffffffffffffff1681526020016000820160149054906101000a900460ff1615151515815250508152602001906001019062000d31565b505050509050919050565b60008060009054906101000a900473ffffffffffffffffffffffffffffffffffffffff16905090565b6000806040518060200162000e1b90620011ab565b6020820181038252601f19601f820116604052503060405160200162000e4291906200151f565b60405160208183030381529060405260405160200162000e6492919062002029565b6040516020818303038152906040529050600060ff60f81b3085848051906020012060405160200162000e9b9493929190620020d1565b6040516020818303038152906040528051906020012090508060001c92505050919050565b6002818154811062000ed157600080fd5b906000526020600020016000915054906101000a900473ffffffffffffffffffffffffffffffffffffffff1681565b6060600460008373ffffffffffffffffffffffffffffffffffffffff1673ffffffffffffffffffffffffffffffffffffffff16815260200190815260200160002080548060200260200160405190810160405280929190818152602001828054801562000fc357602002820191906000526020600020905b8160009054906101000a900473ffffffffffffffffffffffffffffffffffffffff1673ffffffffffffffffffffffffffffffffffffffff168152602001906001019080831162000f78575b50505050509050919050565b62000fd96200105a565b600073ffffffffffffffffffffffffffffffffffffffff168173ffffffffffffffffffffffffffffffffffffffff1614156200104c576040517f08c379a000000000000000000000000000000000000000000000000000000000815260040162001043906200219d565b60405180910390fd5b6200105781620010df565b50565b62001064620011a3565b73ffffffffffffffffffffffffffffffffffffffff166200108462000ddd565b73ffffffffffffffffffffffffffffffffffffffff1614620010dd576040517f08c379a0000000000000000000000000000000000000000000000000000000008152600401620010d4906200220f565b60405180910390fd5b565b60008060009054906101000a900473ffffffffffffffffffffffffffffffffffffffff169050816000806101000a81548173ffffffffffffffffffffffffffffffffffffffff021916908373ffffffffffffffffffffffffffffffffffffffff1602179055508173ffffffffffffffffffffffffffffffffffffffff168173ffffffffffffffffffffffffffffffffffffffff167f8be0079c531659141344cd1fd0a4f28419497f9722a3daafe3b4186f6b6457e060405160405180910390a35050565b600033905090565b613d59806200223283390190565b6000604051905090565b600080fd5b600080fd5b600080fd5b600080fd5b6000601f19601f8301169050919050565b7f4e487b7100000000000000000000000000000000000000000000000000000000600052604160045260246000fd5b6200122282620011d7565b810181811067ffffffffffffffff82111715620012445762001243620011e8565b5b80604052505050565b600062001259620011b9565b905062001267828262001217565b919050565b600067ffffffffffffffff8211156200128a5762001289620011e8565b5b6200129582620011d7565b9050602081019050919050565b82818337600083830152505050565b6000620012c8620012c2846200126c565b6200124d565b905082815260208101848484011115620012e757620012e6620011d2565b5b620012f4848285620012a2565b509392505050565b600082601f830112620013145762001313620011cd565b5b813562001326848260208601620012b1565b91505092915050565b6000819050919050565b62001344816200132f565b81146200135057600080fd5b50565b600081359050620013648162001339565b92915050565b600080fd5b600080fd5b60008083601f8401126200138d576200138c620011cd565b5b8235905067ffffffffffffffff811115620013ad57620013ac6200136a565b5b602083019150836020820283011115620013cc57620013cb6200136f565b5b9250929050565b60008060008060008060a08789031215620013f357620013f2620011c3565b5b600087013567ffffffffffffffff811115620014145762001413620011c8565b5b6200142289828a01620012fc565b965050602087013567ffffffffffffffff811115620014465762001445620011c8565b5b6200145489828a01620012fc565b95505060406200146789828a0162001353565b945050606087013567ffffffffffffffff8111156200148b576200148a620011c8565b5b6200149989828a01620012fc565b935050608087013567ffffffffffffffff811115620014bd57620014bc620011c8565b5b620014cb89828a0162001374565b92509250509295509295509295565b600073ffffffffffffffffffffffffffffffffffffffff82169050919050565b60006200150782620014da565b9050919050565b6200151981620014fa565b82525050565b60006020820190506200153660008301846200150e565b92915050565b6200154781620014fa565b81146200155357600080fd5b50565b60008135905062001567816200153c565b92915050565b60008060408385031215620015875762001586620011c3565b5b6000620015978582860162001556565b9250506020620015aa8582860162001353565b9150509250929050565b600060208284031215620015cd57620015cc620011c3565b5b6000620015dd8482850162001556565b91505092915050565b60008115159050919050565b620015fd81620015e6565b82525050565b60006020820190506200161a6000830184620015f2565b92915050565b60006040820190506200163760008301856200150e565b620016466020830184620015f2565b9392505050565b60008060408385031215620016675762001666620011c3565b5b6000620016778582860162001353565b92505060206200168a8582860162001353565b9150509250929050565b600081519050919050565b600082825260208201905092915050565b6000819050602082019050919050565b620016cb81620014fa565b82525050565b620016dc81620015e6565b82525050565b604082016000820151620016fa6000850182620016c0565b5060208201516200170f6020850182620016d1565b50505050565b6000620017238383620016e2565b60408301905092915050565b6000602082019050919050565b6000620017498262001694565b6200175581856200169f565b93506200176283620016b0565b8060005b83811015620017995781516200177d888262001715565b97506200178a836200172f565b92505060018101905062001766565b5085935050505092915050565b60006020820190508181036000830152620017c281846200173c565b905092915050565b600060208284031215620017e357620017e2620011c3565b5b6000620017f38482850162001353565b91505092915050565b600081519050919050565b600082825260208201905092915050565b6000819050602082019050919050565b6000620018368383620016c0565b60208301905092915050565b6000602082019050919050565b60006200185c82620017fc565b62001868818562001807565b9350620018758362001818565b8060005b83811015620018ac57815162001890888262001828565b97506200189d8362001842565b92505060018101905062001879565b5085935050505092915050565b60006020820190508181036000830152620018d581846200184f565b905092915050565b600082825260208201905092915050565b7f50726f766964652063616d706169676e207469746c6500000000000000000000600082015250565b600062001926601683620018dd565b91506200193382620018ee565b602082019050919050565b60006020820190508181036000830152620019598162001917565b9050919050565b7f50726f766964652063616d706169676e206e616d650000000000000000000000600082015250565b600062001998601583620018dd565b9150620019a58262001960565b602082019050919050565b60006020820190508181036000830152620019cb8162001989565b9050919050565b7f50726f766964652063616d706169676e20666c79657220555249000000000000600082015250565b600062001a0a601a83620018dd565b915062001a1782620019d2565b602082019050919050565b6000602082019050818103600083015262001a3d81620019fb565b9050919050565b600081519050919050565b600081905092915050565b60005b8381101562001a7a57808201518184015260208101905062001a5d565b8381111562001a8a576000848401525b50505050565b600062001a9d8262001a44565b62001aa9818562001a4f565b935062001abb81856020860162001a5a565b80840191505092915050565b7f4149524144000000000000000000000000000000000000000000000000000000600082015250565b600062001aff60058362001a4f565b915062001b0c8262001ac7565b600582019050919050565b6000819050919050565b62001b3662001b30826200132f565b62001b17565b82525050565b60008160601b9050919050565b600062001b568262001b3c565b9050919050565b600062001b6a8262001b49565b9050919050565b62001b8662001b8082620014fa565b62001b5d565b82525050565b600062001b9a828862001a90565b915062001ba78262001af0565b915062001bb5828762001a90565b915062001bc3828662001b21565b60208201915062001bd5828562001a90565b915062001be3828462001b71565b6014820191508190509695505050505050565b7f43616d706169676e20616c726561647920657869737473000000000000000000600082015250565b600062001c2e601783620018dd565b915062001c3b8262001bf6565b602082019050919050565b6000602082019050818103600083015262001c618162001c1f565b9050919050565b600062001c758262001a44565b62001c818185620018dd565b935062001c9381856020860162001a5a565b62001c9e81620011d7565b840191505092915050565b600062001cb8600583620018dd565b915062001cc58262001ac7565b602082019050919050565b62001cdb816200132f565b82525050565b600060c082019050818103600083015262001cfd818862001c68565b9050818103602083015262001d128162001ca9565b9050818103604083015262001d28818762001c68565b905062001d39606083018662001cd0565b818103608083015262001d4d818562001c68565b905062001d5e60a08301846200150e565b9695505050505050565b600060408201905062001d7f60008301856200150e565b62001d8e602083018462001cd0565b9392505050565b7f4e487b7100000000000000000000000000000000000000000000000000000000600052603260045260246000fd5b7f4e487b7100000000000000000000000000000000000000000000000000000000600052601160045260246000fd5b600062001e00826200132f565b91507fffffffffffffffffffffffffffffffffffffffffffffffffffffffffffffffff82141562001e365762001e3562001dc4565b5b600182019050919050565b6000819050919050565b600062001e5c602084018462001556565b905092915050565b6000602082019050919050565b600062001e7f838562001807565b935062001e8c8262001e41565b8060005b8581101562001ecd5762001ea5828462001e4b565b62001eb1888262001828565b975062001ebe8362001e64565b92505060018101905062001e90565b5085925050509392505050565b6000602082019050818103600083015262001ef781848662001e71565b90509392505050565b7f41697264726f7020616c726561647920636f6c6c656374656400000000000000600082015250565b600062001f38601983620018dd565b915062001f458262001f00565b602082019050919050565b6000602082019050818103600083015262001f6b8162001f29565b9050919050565b600060408201905062001f89600083018562001cd0565b62001f9860208301846200150e565b9392505050565b600060608201905062001fb660008301866200150e565b62001fc560208301856200150e565b62001fd4604083018462001cd0565b949350505050565b600081519050919050565b600081905092915050565b600062001fff8262001fdc565b6200200b818562001fe7565b93506200201d81856020860162001a5a565b80840191505092915050565b600062002037828562001ff2565b915062002045828462001ff2565b91508190509392505050565b60007fff0000000000000000000000000000000000000000000000000000000000000082169050919050565b6000819050919050565b6200209c620020968262002051565b6200207d565b82525050565b6000819050919050565b6000819050919050565b620020cb620020c582620020a2565b620020ac565b82525050565b6000620020df828762002087565b600182019150620020f1828662001b71565b60148201915062002103828562001b21565b602082019150620021158284620020b6565b60208201915081905095945050505050565b7f4f776e61626c653a206e6577206f776e657220697320746865207a65726f206160008201527f6464726573730000000000000000000000000000000000000000000000000000602082015250565b600062002185602683620018dd565b9150620021928262002127565b604082019050919050565b60006020820190508181036000830152620021b88162002176565b9050919050565b7f4f776e61626c653a2063616c6c6572206973206e6f7420746865206f776e6572600082015250565b6000620021f7602083620018dd565b91506200220482620021bf565b602082019050919050565b600060208201905081810360008301526200222a81620021e8565b905091905056fe60806040523480156200001157600080fd5b5060405162003d5938038062003d598339818101604052810190620000379190620003e8565b85856001600081905550816001908051906020019062000059929190620000fb565b50806002908051906020019062000072929190620000fb565b50505083600b90805190602001906200008d929190620000fb565b508260098190555081600a9080519060200190620000ad929190620000fb565b5080600d60006101000a81548173ffffffffffffffffffffffffffffffffffffffff021916908373ffffffffffffffffffffffffffffffffffffffff16021790555050505050505062000565565b82805462000109906200052f565b90600052602060002090601f0160209004810192826200012d576000855562000179565b82601f106200014857805160ff191683800117855562000179565b8280016001018555821562000179579182015b82811115620001785782518255916020019190600101906200015b565b5b5090506200018891906200018c565b5090565b5b80821115620001a75760008160009055506001016200018d565b5090565b6000604051905090565b600080fd5b600080fd5b600080fd5b600080fd5b6000601f19601f8301169050919050565b7f4e487b7100000000000000000000000000000000000000000000000000000000600052604160045260246000fd5b6200021482620001c9565b810181811067ffffffffffffffff82111715620002365762000235620001da565b5b80604052505050565b60006200024b620001ab565b905062000259828262000209565b919050565b600067ffffffffffffffff8211156200027c576200027b620001da565b5b6200028782620001c9565b9050602081019050919050565b60005b83811015620002b457808201518184015260208101905062000297565b83811115620002c4576000848401525b50505050565b6000620002e1620002db846200025e565b6200023f565b9050828152602081018484840111156200030057620002ff620001c4565b5b6200030d84828562000294565b509392505050565b600082601f8301126200032d576200032c620001bf565b5b81516200033f848260208601620002ca565b91505092915050565b6000819050919050565b6200035d8162000348565b81146200036957600080fd5b50565b6000815190506200037d8162000352565b92915050565b600073ffffffffffffffffffffffffffffffffffffffff82169050919050565b6000620003b08262000383565b9050919050565b620003c281620003a3565b8114620003ce57600080fd5b50565b600081519050620003e281620003b7565b92915050565b60008060008060008060c08789031215620004085762000407620001b5565b5b600087015167ffffffffffffffff811115620004295762000428620001ba565b5b6200043789828a0162000315565b965050602087015167ffffffffffffffff8111156200045b576200045a620001ba565b5b6200046989828a0162000315565b955050604087015167ffffffffffffffff8111156200048d576200048c620001ba565b5b6200049b89828a0162000315565b9450506060620004ae89828a016200036c565b935050608087015167ffffffffffffffff811115620004d257620004d1620001ba565b5b620004e089828a0162000315565b92505060a0620004f389828a01620003d1565b9150509295509295509295565b7f4e487b7100000000000000000000000000000000000000000000000000000000600052602260045260246000fd5b600060028204905060018216806200054857607f821691505b602082108114156200055f576200055e62000500565b5b50919050565b6137e480620005756000396000f3fe6080604052600436106101355760003560e01c806381701f37116100ab578063a22cb4651161006f578063a22cb4651461043f578063a7c7d2a014610468578063b88d4fde14610493578063c87b56dd146104bc578063e2d732df146104f9578063e985e9c51461052457610135565b806381701f37146103585780638cbab7e41461038357806393575f97146103c057806395d89b41146103e957806398bdf6f51461041457610135565b806323b872dd116100fd57806323b872dd1461023357806342842e0e1461025c5780635d8b4d68146102855780636352211e146102a15780636511bf2e146102de57806370a082311461031b57610135565b806301ffc9a71461013a57806306fdde03146101775780630724fda9146101a2578063081812fc146101cd578063095ea7b31461020a575b600080fd5b34801561014657600080fd5b50610161600480360381019061015c9190612430565b610561565b60405161016e9190612478565b60405180910390f35b34801561018357600080fd5b5061018c610643565b604051610199919061252c565b60405180910390f35b3480156101ae57600080fd5b506101b76106d5565b6040516101c4919061252c565b60405180910390f35b3480156101d957600080fd5b506101f460048036038101906101ef9190612584565b610763565b60405161020191906125f2565b60405180910390f35b34801561021657600080fd5b50610231600480360381019061022c9190612639565b6107a9565b005b34801561023f57600080fd5b5061025a60048036038101906102559190612679565b6108c1565b005b34801561026857600080fd5b50610283600480360381019061027e9190612679565b610921565b005b61029f600480360381019061029a9190612731565b610941565b005b3480156102ad57600080fd5b506102c860048036038101906102c39190612584565b610c55565b6040516102d591906125f2565b60405180910390f35b3480156102ea57600080fd5b506103056004803603810190610300919061277e565b610d07565b60405161031291906127ba565b60405180910390f35b34801561032757600080fd5b50610342600480360381019061033d919061277e565b610d1f565b60405161034f91906127ba565b60405180910390f35b34801561036457600080fd5b5061036d610dd7565b60405161037a919061252c565b60405180910390f35b34801561038f57600080fd5b506103aa60048036038101906103a5919061277e565b610e65565b6040516103b791906127ba565b60405180910390f35b3480156103cc57600080fd5b506103e760048036038101906103e291906127d5565b610eae565b005b3480156103f557600080fd5b506103fe6110c6565b60405161040b919061252c565b60405180910390f35b34801561042057600080fd5b50610429611158565b60405161043691906127ba565b60405180910390f35b34801561044b57600080fd5b5061046660048036038101906104619190612841565b61115e565b005b34801561047457600080fd5b5061047d611174565b60405161048a91906127ba565b60405180910390f35b34801561049f57600080fd5b506104ba60048036038101906104b591906129b1565b61117a565b005b3480156104c857600080fd5b506104e360048036038101906104de9190612584565b6111dc565b6040516104f0919061252c565b60405180910390f35b34801561050557600080fd5b5061050e6112ef565b60405161051b91906125f2565b60405180910390f35b34801561053057600080fd5b5061054b60048036038101906105469190612a34565b611315565b6040516105589190612478565b60405180910390f35b60007f80ac58cd000000000000000000000000000000000000000000000000000000007bffffffffffffffffffffffffffffffffffffffffffffffffffffffff1916827bffffffffffffffffffffffffffffffffffffffffffffffffffffffff1916148061062c57507f5b5e139f000000000000000000000000000000000000000000000000000000007bffffffffffffffffffffffffffffffffffffffffffffffffffffffff1916827bffffffffffffffffffffffffffffffffffffffffffffffffffffffff1916145b8061063c575061063b826113a9565b5b9050919050565b60606001805461065290612aa3565b80601f016020809104026020016040519081016040528092919081815260200182805461067e90612aa3565b80156106cb5780601f106106a0576101008083540402835291602001916106cb565b820191906000526020600020905b8154815290600101906020018083116106ae57829003601f168201915b5050505050905090565b600b80546106e290612aa3565b80601f016020809104026020016040519081016040528092919081815260200182805461070e90612aa3565b801561075b5780601f106107305761010080835404028352916020019161075b565b820191906000526020600020905b81548152906001019060200180831161073e57829003601f168201915b505050505081565b600061076e82611413565b6005600083815260200190815260200160002060009054906101000a900473ffffffffffffffffffffffffffffffffffffffff169050919050565b60006107b482610c55565b90508073ffffffffffffffffffffffffffffffffffffffff168373ffffffffffffffffffffffffffffffffffffffff161415610825576040517f08c379a000000000000000000000000000000000000000000000000000000000815260040161081c90612b47565b60405180910390fd5b8073ffffffffffffffffffffffffffffffffffffffff1661084461145e565b73ffffffffffffffffffffffffffffffffffffffff16148061087357506108728161086d61145e565b611315565b5b6108b2576040517f08c379a00000000000000000000000000000000000000000000000000000000081526004016108a990612bd9565b60405180910390fd5b6108bc8383611466565b505050565b6108d26108cc61145e565b8261151f565b610911576040517f08c379a000000000000000000000000000000000000000000000000000000000815260040161090890612c6b565b60405180910390fd5b61091c8383836115b4565b505050565b61093c8383836040518060200160405280600081525061117a565b505050565b60026000541415610987576040517f08c379a000000000000000000000000000000000000000000000000000000000815260040161097e90612cd7565b60405180910390fd5b6002600081905550600d60009054906101000a900473ffffffffffffffffffffffffffffffffffffffff1673ffffffffffffffffffffffffffffffffffffffff163373ffffffffffffffffffffffffffffffffffffffff1614610a1f576040517f08c379a0000000000000000000000000000000000000000000000000000000008152600401610a1690612d43565b60405180910390fd5b6000828290501415610a66576040517f08c379a0000000000000000000000000000000000000000000000000000000008152600401610a5d90612daf565b60405180910390fd5b81819050600954610a779190612dfe565b341015610ab9576040517f08c379a0000000000000000000000000000000000000000000000000000000008152600401610ab090612ea4565b60405180910390fd5b60005b82829050811015610c3157610b05838383818110610add57610adc612ec4565b5b9050602002016020810190610af2919061277e565b82600854610b009190612ef3565b61181b565b610ba681600854610b169190612ef3565b600a8054610b2390612aa3565b80601f0160208091040260200160405190810160405280929190818152602001828054610b4f90612aa3565b8015610b9c5780601f10610b7157610100808354040283529160200191610b9c565b820191906000526020600020905b815481529060010190602001808311610b7f57829003601f168201915b5050505050611839565b80600854610bb49190612ef3565b600c6000858585818110610bcb57610bca612ec4565b5b9050602002016020810190610be0919061277e565b73ffffffffffffffffffffffffffffffffffffffff1673ffffffffffffffffffffffffffffffffffffffff168152602001908152602001600020819055508080610c2990612f49565b915050610abc565b5081819050600854610c439190612ef3565b60088190555060016000819055505050565b6000806003600084815260200190815260200160002060009054906101000a900473ffffffffffffffffffffffffffffffffffffffff169050600073ffffffffffffffffffffffffffffffffffffffff168173ffffffffffffffffffffffffffffffffffffffff161415610cfe576040517f08c379a0000000000000000000000000000000000000000000000000000000008152600401610cf590612fde565b60405180910390fd5b80915050919050565b600c6020528060005260406000206000915090505481565b60008073ffffffffffffffffffffffffffffffffffffffff168273ffffffffffffffffffffffffffffffffffffffff161415610d90576040517f08c379a0000000000000000000000000000000000000000000000000000000008152600401610d8790613070565b60405180910390fd5b600460008373ffffffffffffffffffffffffffffffffffffffff1673ffffffffffffffffffffffffffffffffffffffff168152602001908152602001600020549050919050565b600a8054610de490612aa3565b80601f0160208091040260200160405190810160405280929190818152602001828054610e1090612aa3565b8015610e5d5780601f10610e3257610100808354040283529160200191610e5d565b820191906000526020600020905b815481529060010190602001808311610e4057829003601f168201915b505050505081565b6000600c60008373ffffffffffffffffffffffffffffffffffffffff1673ffffffffffffffffffffffffffffffffffffffff168152602001908152602001600020549050919050565b60026000541415610ef4576040517f08c379a0000000000000000000000000000000000000000000000000000000008152600401610eeb90612cd7565b60405180910390fd5b6002600081905550600d60009054906101000a900473ffffffffffffffffffffffffffffffffffffffff1673ffffffffffffffffffffffffffffffffffffffff163373ffffffffffffffffffffffffffffffffffffffff1614610f8c576040517f08c379a0000000000000000000000000000000000000000000000000000000008152600401610f8390612d43565b60405180910390fd5b610f9582610c55565b73ffffffffffffffffffffffffffffffffffffffff168173ffffffffffffffffffffffffffffffffffffffff1614611002576040517f08c379a0000000000000000000000000000000000000000000000000000000008152600401610ff9906130dc565b60405180910390fd5b61100b826118ad565b60008173ffffffffffffffffffffffffffffffffffffffff166009546040516110339061312d565b60006040518083038185875af1925050503d8060008114611070576040519150601f19603f3d011682016040523d82523d6000602084013e611075565b606091505b50509050806110b9576040517f08c379a00000000000000000000000000000000000000000000000000000000081526004016110b09061318e565b60405180910390fd5b5060016000819055505050565b6060600280546110d590612aa3565b80601f016020809104026020016040519081016040528092919081815260200182805461110190612aa3565b801561114e5780601f106111235761010080835404028352916020019161114e565b820191906000526020600020905b81548152906001019060200180831161113157829003601f168201915b5050505050905090565b60085481565b61117061116961145e565b8383611900565b5050565b60095481565b61118b61118561145e565b8361151f565b6111ca576040517f08c379a00000000000000000000000000000000000000000000000000000000081526004016111c190612c6b565b60405180910390fd5b6111d684848484611a6d565b50505050565b60606111e782611413565b600060076000848152602001908152602001600020805461120790612aa3565b80601f016020809104026020016040519081016040528092919081815260200182805461123390612aa3565b80156112805780601f1061125557610100808354040283529160200191611280565b820191906000526020600020905b81548152906001019060200180831161126357829003601f168201915b505050505090506000611291611ac9565b90506000815114156112a75781925050506112ea565b6000825111156112dc5780826040516020016112c49291906131ea565b604051602081830303815290604052925050506112ea565b6112e584611ae0565b925050505b919050565b600d60009054906101000a900473ffffffffffffffffffffffffffffffffffffffff1681565b6000600660008473ffffffffffffffffffffffffffffffffffffffff1673ffffffffffffffffffffffffffffffffffffffff16815260200190815260200160002060008373ffffffffffffffffffffffffffffffffffffffff1673ffffffffffffffffffffffffffffffffffffffff16815260200190815260200160002060009054906101000a900460ff16905092915050565b60007f01ffc9a7000000000000000000000000000000000000000000000000000000007bffffffffffffffffffffffffffffffffffffffffffffffffffffffff1916827bffffffffffffffffffffffffffffffffffffffffffffffffffffffff1916149050919050565b61141c81611b48565b61145b576040517f08c379a000000000000000000000000000000000000000000000000000000000815260040161145290612fde565b60405180910390fd5b50565b600033905090565b816005600083815260200190815260200160002060006101000a81548173ffffffffffffffffffffffffffffffffffffffff021916908373ffffffffffffffffffffffffffffffffffffffff160217905550808273ffffffffffffffffffffffffffffffffffffffff166114d983610c55565b73ffffffffffffffffffffffffffffffffffffffff167f8c5be1e5ebec7d5bd14f71427d1e84f3dd0314c0f7b2291e5b200ac8c7c3b92560405160405180910390a45050565b60008061152b83610c55565b90508073ffffffffffffffffffffffffffffffffffffffff168473ffffffffffffffffffffffffffffffffffffffff16148061156d575061156c8185611315565b5b806115ab57508373ffffffffffffffffffffffffffffffffffffffff1661159384610763565b73ffffffffffffffffffffffffffffffffffffffff16145b91505092915050565b8273ffffffffffffffffffffffffffffffffffffffff166115d482610c55565b73ffffffffffffffffffffffffffffffffffffffff161461162a576040517f08c379a000000000000000000000000000000000000000000000000000000000815260040161162190613280565b60405180910390fd5b600073ffffffffffffffffffffffffffffffffffffffff168273ffffffffffffffffffffffffffffffffffffffff16141561169a576040517f08c379a000000000000000000000000000000000000000000000000000000000815260040161169190613312565b60405180910390fd5b6116a5838383611bb4565b6116b0600082611466565b6001600460008573ffffffffffffffffffffffffffffffffffffffff1673ffffffffffffffffffffffffffffffffffffffff16815260200190815260200160002060008282546117009190613332565b925050819055506001600460008473ffffffffffffffffffffffffffffffffffffffff1673ffffffffffffffffffffffffffffffffffffffff16815260200190815260200160002060008282546117579190612ef3565b92505081905550816003600083815260200190815260200160002060006101000a81548173ffffffffffffffffffffffffffffffffffffffff021916908373ffffffffffffffffffffffffffffffffffffffff160217905550808273ffffffffffffffffffffffffffffffffffffffff168473ffffffffffffffffffffffffffffffffffffffff167fddf252ad1be2c89b69c2b068fc378daa952ba7f163c4a11628f55a4df523b3ef60405160405180910390a4611816838383611c6a565b505050565b611835828260405180602001604052806000815250611c6f565b5050565b61184282611b48565b611881576040517f08c379a0000000000000000000000000000000000000000000000000000000008152600401611878906133d8565b60405180910390fd5b806007600084815260200190815260200160002090805190602001906118a89291906122e1565b505050565b6118b681611cca565b60006007600083815260200190815260200160002080546118d690612aa3565b9050146118fd576007600082815260200190815260200160002060006118fc9190612367565b5b50565b8173ffffffffffffffffffffffffffffffffffffffff168373ffffffffffffffffffffffffffffffffffffffff16141561196f576040517f08c379a000000000000000000000000000000000000000000000000000000000815260040161196690613444565b60405180910390fd5b80600660008573ffffffffffffffffffffffffffffffffffffffff1673ffffffffffffffffffffffffffffffffffffffff16815260200190815260200160002060008473ffffffffffffffffffffffffffffffffffffffff1673ffffffffffffffffffffffffffffffffffffffff16815260200190815260200160002060006101000a81548160ff0219169083151502179055508173ffffffffffffffffffffffffffffffffffffffff168373ffffffffffffffffffffffffffffffffffffffff167f17307eab39ab6107e8899845ad3d59bd9653f200f220920489ca2b5937696c3183604051611a609190612478565b60405180910390a3505050565b611a788484846115b4565b611a8484848484611de7565b611ac3576040517f08c379a0000000000000000000000000000000000000000000000000000000008152600401611aba906134d6565b60405180910390fd5b50505050565b606060405180602001604052806000815250905090565b6060611aeb82611413565b6000611af5611ac9565b90506000815111611b155760405180602001604052806000815250611b40565b80611b1f84611f7e565b604051602001611b309291906131ea565b6040516020818303038152906040525b915050919050565b60008073ffffffffffffffffffffffffffffffffffffffff166003600084815260200190815260200160002060009054906101000a900473ffffffffffffffffffffffffffffffffffffffff1673ffffffffffffffffffffffffffffffffffffffff1614159050919050565b600073ffffffffffffffffffffffffffffffffffffffff168373ffffffffffffffffffffffffffffffffffffffff161480611c1b5750600073ffffffffffffffffffffffffffffffffffffffff168273ffffffffffffffffffffffffffffffffffffffff16145b611c5a576040517f08c379a0000000000000000000000000000000000000000000000000000000008152600401611c5190613542565b60405180910390fd5b611c658383836120df565b505050565b505050565b611c7983836120e4565b611c866000848484611de7565b611cc5576040517f08c379a0000000000000000000000000000000000000000000000000000000008152600401611cbc906134d6565b60405180910390fd5b505050565b6000611cd582610c55565b9050611ce381600084611bb4565b611cee600083611466565b6001600460008373ffffffffffffffffffffffffffffffffffffffff1673ffffffffffffffffffffffffffffffffffffffff1681526020019081526020016000206000828254611d3e9190613332565b925050819055506003600083815260200190815260200160002060006101000a81549073ffffffffffffffffffffffffffffffffffffffff021916905581600073ffffffffffffffffffffffffffffffffffffffff168273ffffffffffffffffffffffffffffffffffffffff167fddf252ad1be2c89b69c2b068fc378daa952ba7f163c4a11628f55a4df523b3ef60405160405180910390a4611de381600084611c6a565b5050565b6000611e088473ffffffffffffffffffffffffffffffffffffffff166122be565b15611f71578373ffffffffffffffffffffffffffffffffffffffff1663150b7a02611e3161145e565b8786866040518563ffffffff1660e01b8152600401611e5394939291906135b7565b602060405180830381600087803b158015611e6d57600080fd5b505af1925050508015611e9e57506040513d601f19601f82011682018060405250810190611e9b9190613618565b60015b611f21573d8060008114611ece576040519150601f19603f3d011682016040523d82523d6000602084013e611ed3565b606091505b50600081511415611f19576040517f08c379a0000000000000000000000000000000000000000000000000000000008152600401611f10906134d6565b60405180910390fd5b805181602001fd5b63150b7a0260e01b7bffffffffffffffffffffffffffffffffffffffffffffffffffffffff1916817bffffffffffffffffffffffffffffffffffffffffffffffffffffffff191614915050611f76565b600190505b949350505050565b60606000821415611fc6576040518060400160405280600181526020017f300000000000000000000000000000000000000000000000000000000000000081525090506120da565b600082905060005b60008214611ff8578080611fe190612f49565b915050600a82611ff19190613674565b9150611fce565b60008167ffffffffffffffff81111561201457612013612886565b5b6040519080825280601f01601f1916602001820160405280156120465781602001600182028036833780820191505090505b5090505b600085146120d35760018261205f9190613332565b9150600a8561206e91906136a5565b603061207a9190612ef3565b60f81b8183815181106120905761208f612ec4565b5b60200101907effffffffffffffffffffffffffffffffffffffffffffffffffffffffffffff1916908160001a905350600a856120cc9190613674565b945061204a565b8093505050505b919050565b505050565b600073ffffffffffffffffffffffffffffffffffffffff168273ffffffffffffffffffffffffffffffffffffffff161415612154576040517f08c379a000000000000000000000000000000000000000000000000000000000815260040161214b90613722565b60405180910390fd5b61215d81611b48565b1561219d576040517f08c379a00000000000000000000000000000000000000000000000000000000081526004016121949061378e565b60405180910390fd5b6121a960008383611bb4565b6001600460008473ffffffffffffffffffffffffffffffffffffffff1673ffffffffffffffffffffffffffffffffffffffff16815260200190815260200160002060008282546121f99190612ef3565b92505081905550816003600083815260200190815260200160002060006101000a81548173ffffffffffffffffffffffffffffffffffffffff021916908373ffffffffffffffffffffffffffffffffffffffff160217905550808273ffffffffffffffffffffffffffffffffffffffff16600073ffffffffffffffffffffffffffffffffffffffff167fddf252ad1be2c89b69c2b068fc378daa952ba7f163c4a11628f55a4df523b3ef60405160405180910390a46122ba60008383611c6a565b5050565b6000808273ffffffffffffffffffffffffffffffffffffffff163b119050919050565b8280546122ed90612aa3565b90600052602060002090601f01602090048101928261230f5760008555612356565b82601f1061232857805160ff1916838001178555612356565b82800160010185558215612356579182015b8281111561235557825182559160200191906001019061233a565b5b50905061236391906123a7565b5090565b50805461237390612aa3565b6000825580601f1061238557506123a4565b601f0160209004906000526020600020908101906123a391906123a7565b5b50565b5b808211156123c05760008160009055506001016123a8565b5090565b6000604051905090565b600080fd5b600080fd5b60007fffffffff0000000000000000000000000000000000000000000000000000000082169050919050565b61240d816123d8565b811461241857600080fd5b50565b60008135905061242a81612404565b92915050565b600060208284031215612446576124456123ce565b5b60006124548482850161241b565b91505092915050565b60008115159050919050565b6124728161245d565b82525050565b600060208201905061248d6000830184612469565b92915050565b600081519050919050565b600082825260208201905092915050565b60005b838110156124cd5780820151818401526020810190506124b2565b838111156124dc576000848401525b50505050565b6000601f19601f8301169050919050565b60006124fe82612493565b612508818561249e565b93506125188185602086016124af565b612521816124e2565b840191505092915050565b6000602082019050818103600083015261254681846124f3565b905092915050565b6000819050919050565b6125618161254e565b811461256c57600080fd5b50565b60008135905061257e81612558565b92915050565b60006020828403121561259a576125996123ce565b5b60006125a88482850161256f565b91505092915050565b600073ffffffffffffffffffffffffffffffffffffffff82169050919050565b60006125dc826125b1565b9050919050565b6125ec816125d1565b82525050565b600060208201905061260760008301846125e3565b92915050565b612616816125d1565b811461262157600080fd5b50565b6000813590506126338161260d565b92915050565b600080604083850312156126505761264f6123ce565b5b600061265e85828601612624565b925050602061266f8582860161256f565b9150509250929050565b600080600060608486031215612692576126916123ce565b5b60006126a086828701612624565b93505060206126b186828701612624565b92505060406126c28682870161256f565b9150509250925092565b600080fd5b600080fd5b600080fd5b60008083601f8401126126f1576126f06126cc565b5b8235905067ffffffffffffffff81111561270e5761270d6126d1565b5b60208301915083602082028301111561272a576127296126d6565b5b9250929050565b60008060208385031215612748576127476123ce565b5b600083013567ffffffffffffffff811115612766576127656123d3565b5b612772858286016126db565b92509250509250929050565b600060208284031215612794576127936123ce565b5b60006127a284828501612624565b91505092915050565b6127b48161254e565b82525050565b60006020820190506127cf60008301846127ab565b92915050565b600080604083850312156127ec576127eb6123ce565b5b60006127fa8582860161256f565b925050602061280b85828601612624565b9150509250929050565b61281e8161245d565b811461282957600080fd5b50565b60008135905061283b81612815565b92915050565b60008060408385031215612858576128576123ce565b5b600061286685828601612624565b92505060206128778582860161282c565b9150509250929050565b600080fd5b7f4e487b7100000000000000000000000000000000000000000000000000000000600052604160045260246000fd5b6128be826124e2565b810181811067ffffffffffffffff821117156128dd576128dc612886565b5b80604052505050565b60006128f06123c4565b90506128fc82826128b5565b919050565b600067ffffffffffffffff82111561291c5761291b612886565b5b612925826124e2565b9050602081019050919050565b82818337600083830152505050565b600061295461294f84612901565b6128e6565b9050828152602081018484840111156129705761296f612881565b5b61297b848285612932565b509392505050565b600082601f830112612998576129976126cc565b5b81356129a8848260208601612941565b91505092915050565b600080600080608085870312156129cb576129ca6123ce565b5b60006129d987828801612624565b94505060206129ea87828801612624565b93505060406129fb8782880161256f565b925050606085013567ffffffffffffffff811115612a1c57612a1b6123d3565b5b612a2887828801612983565b91505092959194509250565b60008060408385031215612a4b57612a4a6123ce565b5b6000612a5985828601612624565b9250506020612a6a85828601612624565b9150509250929050565b7f4e487b7100000000000000000000000000000000000000000000000000000000600052602260045260246000fd5b60006002820490506001821680612abb57607f821691505b60208210811415612acf57612ace612a74565b5b50919050565b7f4552433732313a20617070726f76616c20746f2063757272656e74206f776e6560008201527f7200000000000000000000000000000000000000000000000000000000000000602082015250565b6000612b3160218361249e565b9150612b3c82612ad5565b604082019050919050565b60006020820190508181036000830152612b6081612b24565b9050919050565b7f4552433732313a20617070726f76652063616c6c6572206973206e6f7420746f60008201527f6b656e206f776e6572206e6f7220617070726f76656420666f7220616c6c0000602082015250565b6000612bc3603e8361249e565b9150612bce82612b67565b604082019050919050565b60006020820190508181036000830152612bf281612bb6565b9050919050565b7f4552433732313a2063616c6c6572206973206e6f7420746f6b656e206f776e6560008201527f72206e6f7220617070726f766564000000000000000000000000000000000000602082015250565b6000612c55602e8361249e565b9150612c6082612bf9565b604082019050919050565b60006020820190508181036000830152612c8481612c48565b9050919050565b7f5265656e7472616e637947756172643a207265656e7472616e742063616c6c00600082015250565b6000612cc1601f8361249e565b9150612ccc82612c8b565b602082019050919050565b60006020820190508181036000830152612cf081612cb4565b9050919050565b7f43616c6c6572206973206e6f742041697276657274697365466163746f727900600082015250565b6000612d2d601f8361249e565b9150612d3882612cf7565b602082019050919050565b60006020820190508181036000830152612d5c81612d20565b9050919050565b7f4e6f206164647265737365732072656365697665640000000000000000000000600082015250565b6000612d9960158361249e565b9150612da482612d63565b602082019050919050565b60006020820190508181036000830152612dc881612d8c565b9050919050565b7f4e487b7100000000000000000000000000000000000000000000000000000000600052601160045260246000fd5b6000612e098261254e565b9150612e148361254e565b9250817fffffffffffffffffffffffffffffffffffffffffffffffffffffffffffffffff0483118215151615612e4d57612e4c612dcf565b5b828202905092915050565b7f4e6f7420656e6f7567682066756e647300000000000000000000000000000000600082015250565b6000612e8e60108361249e565b9150612e9982612e58565b602082019050919050565b60006020820190508181036000830152612ebd81612e81565b9050919050565b7f4e487b7100000000000000000000000000000000000000000000000000000000600052603260045260246000fd5b6000612efe8261254e565b9150612f098361254e565b9250827fffffffffffffffffffffffffffffffffffffffffffffffffffffffffffffffff03821115612f3e57612f3d612dcf565b5b828201905092915050565b6000612f548261254e565b91507fffffffffffffffffffffffffffffffffffffffffffffffffffffffffffffffff821415612f8757612f86612dcf565b5b600182019050919050565b7f4552433732313a20696e76616c696420746f6b656e2049440000000000000000600082015250565b6000612fc860188361249e565b9150612fd382612f92565b602082019050919050565b60006020820190508181036000830152612ff781612fbb565b9050919050565b7f4552433732313a2061646472657373207a65726f206973206e6f74206120766160008201527f6c6964206f776e65720000000000000000000000000000000000000000000000602082015250565b600061305a60298361249e565b915061306582612ffe565b604082019050919050565b600060208201905081810360008301526130898161304d565b9050919050565b7f4e6f7420746f6b656e206f776e65720000000000000000000000000000000000600082015250565b60006130c6600f8361249e565b91506130d182613090565b602082019050919050565b600060208201905081810360008301526130f5816130b9565b9050919050565b600081905092915050565b50565b60006131176000836130fc565b915061312282613107565b600082019050919050565b60006131388261310a565b9150819050919050565b7f4661696c656420746f2073656e642076616c7565000000000000000000000000600082015250565b600061317860148361249e565b915061318382613142565b602082019050919050565b600060208201905081810360008301526131a78161316b565b9050919050565b600081905092915050565b60006131c482612493565b6131ce81856131ae565b93506131de8185602086016124af565b80840191505092915050565b60006131f682856131b9565b915061320282846131b9565b91508190509392505050565b7f4552433732313a207472616e736665722066726f6d20696e636f72726563742060008201527f6f776e6572000000000000000000000000000000000000000000000000000000602082015250565b600061326a60258361249e565b91506132758261320e565b604082019050919050565b600060208201905081810360008301526132998161325d565b9050919050565b7f4552433732313a207472616e7366657220746f20746865207a65726f2061646460008201527f7265737300000000000000000000000000000000000000000000000000000000602082015250565b60006132fc60248361249e565b9150613307826132a0565b604082019050919050565b6000602082019050818103600083015261332b816132ef565b9050919050565b600061333d8261254e565b91506133488361254e565b92508282101561335b5761335a612dcf565b5b828203905092915050565b7f45524337323155524953746f726167653a2055524920736574206f66206e6f6e60008201527f6578697374656e7420746f6b656e000000000000000000000000000000000000602082015250565b60006133c2602e8361249e565b91506133cd82613366565b604082019050919050565b600060208201905081810360008301526133f1816133b5565b9050919050565b7f4552433732313a20617070726f766520746f2063616c6c657200000000000000600082015250565b600061342e60198361249e565b9150613439826133f8565b602082019050919050565b6000602082019050818103600083015261345d81613421565b9050919050565b7f4552433732313a207472616e7366657220746f206e6f6e20455243373231526560008201527f63656976657220696d706c656d656e7465720000000000000000000000000000602082015250565b60006134c060328361249e565b91506134cb82613464565b604082019050919050565b600060208201905081810360008301526134ef816134b3565b9050919050565b7f43616e6e6f74207472616e736665722061697264726f70000000000000000000600082015250565b600061352c60178361249e565b9150613537826134f6565b602082019050919050565b6000602082019050818103600083015261355b8161351f565b9050919050565b600081519050919050565b600082825260208201905092915050565b600061358982613562565b613593818561356d565b93506135a38185602086016124af565b6135ac816124e2565b840191505092915050565b60006080820190506135cc60008301876125e3565b6135d960208301866125e3565b6135e660408301856127ab565b81810360608301526135f8818461357e565b905095945050505050565b60008151905061361281612404565b92915050565b60006020828403121561362e5761362d6123ce565b5b600061363c84828501613603565b91505092915050565b7f4e487b7100000000000000000000000000000000000000000000000000000000600052601260045260246000fd5b600061367f8261254e565b915061368a8361254e565b92508261369a57613699613645565b5b828204905092915050565b60006136b08261254e565b91506136bb8361254e565b9250826136cb576136ca613645565b5b828206905092915050565b7f4552433732313a206d696e7420746f20746865207a65726f2061646472657373600082015250565b600061370c60208361249e565b9150613717826136d6565b602082019050919050565b6000602082019050818103600083015261373b816136ff565b9050919050565b7f4552433732313a20746f6b656e20616c7265616479206d696e74656400000000600082015250565b6000613778601c8361249e565b915061378382613742565b602082019050919050565b600060208201905081810360008301526137a78161376b565b905091905056fea26469706673582212205877e666941e56023ee93cc60679f5c33ff665ecfaa206a5de2dac924bf9f3e164736f6c63430008080033a26469706673582212201d99195bfc2db87b436906cdde3ed35eec7a9bfddc1478ab697b6b8d7a90714864736f6c63430008080033",
  "linkReferences": {},
  "deployedLinkReferences": {}
}